{
  "_format": "hh-sol-artifact-1",
  "contractName": "CarlAndreDocent",
  "sourceName": "contracts/CarlAndreDocent.sol",
  "abi": [
    {
      "inputs": [],
      "stateMutability": "nonpayable",
      "type": "constructor"
    },
    {
      "anonymous": false,
      "inputs": [
        {
          "indexed": true,
          "internalType": "address",
          "name": "owner",
          "type": "address"
        },
        {
          "indexed": true,
          "internalType": "address",
          "name": "approved",
          "type": "address"
        },
        {
          "indexed": true,
          "internalType": "uint256",
          "name": "tokenId",
          "type": "uint256"
        }
      ],
      "name": "Approval",
      "type": "event"
    },
    {
      "anonymous": false,
      "inputs": [
        {
          "indexed": true,
          "internalType": "address",
          "name": "owner",
          "type": "address"
        },
        {
          "indexed": true,
          "internalType": "address",
          "name": "operator",
          "type": "address"
        },
        {
          "indexed": false,
          "internalType": "bool",
          "name": "approved",
          "type": "bool"
        }
      ],
      "name": "ApprovalForAll",
      "type": "event"
    },
    {
      "anonymous": false,
      "inputs": [
        {
          "indexed": true,
          "internalType": "address",
          "name": "previousOwner",
          "type": "address"
        },
        {
          "indexed": true,
          "internalType": "address",
          "name": "newOwner",
          "type": "address"
        }
      ],
      "name": "OwnershipTransferred",
      "type": "event"
    },
    {
      "anonymous": false,
      "inputs": [
        {
          "indexed": true,
          "internalType": "address",
          "name": "from",
          "type": "address"
        },
        {
          "indexed": true,
          "internalType": "address",
          "name": "to",
          "type": "address"
        },
        {
          "indexed": true,
          "internalType": "uint256",
          "name": "tokenId",
          "type": "uint256"
        }
      ],
      "name": "Transfer",
      "type": "event"
    },
    {
      "inputs": [],
      "name": "MAX_SUPPLY",
      "outputs": [
        {
          "internalType": "uint256",
          "name": "",
          "type": "uint256"
        }
      ],
      "stateMutability": "view",
      "type": "function"
    },
    {
      "inputs": [],
      "name": "PRICE",
      "outputs": [
        {
          "internalType": "uint256",
          "name": "",
          "type": "uint256"
        }
      ],
      "stateMutability": "view",
      "type": "function"
    },
    {
      "inputs": [
        {
          "internalType": "address",
          "name": "to",
          "type": "address"
        },
        {
          "internalType": "uint256",
          "name": "tokenId",
          "type": "uint256"
        }
      ],
      "name": "approve",
      "outputs": [],
      "stateMutability": "nonpayable",
      "type": "function"
    },
    {
      "inputs": [
        {
          "internalType": "address",
          "name": "owner",
          "type": "address"
        }
      ],
      "name": "balanceOf",
      "outputs": [
        {
          "internalType": "uint256",
          "name": "",
          "type": "uint256"
        }
      ],
      "stateMutability": "view",
      "type": "function"
    },
    {
      "inputs": [
        {
          "internalType": "uint256",
          "name": "tokenId",
          "type": "uint256"
        }
      ],
      "name": "getApproved",
      "outputs": [
        {
          "internalType": "address",
          "name": "",
          "type": "address"
        }
      ],
      "stateMutability": "view",
      "type": "function"
    },
    {
      "inputs": [
        {
          "internalType": "address",
          "name": "owner",
          "type": "address"
        },
        {
          "internalType": "address",
          "name": "operator",
          "type": "address"
        }
      ],
      "name": "isApprovedForAll",
      "outputs": [
        {
          "internalType": "bool",
          "name": "",
          "type": "bool"
        }
      ],
      "stateMutability": "view",
      "type": "function"
    },
    {
      "inputs": [
        {
          "internalType": "uint256",
          "name": "tokenId",
          "type": "uint256"
        }
      ],
      "name": "mint",
      "outputs": [],
      "stateMutability": "payable",
      "type": "function"
    },
    {
      "inputs": [],
      "name": "name",
      "outputs": [
        {
          "internalType": "string",
          "name": "",
          "type": "string"
        }
      ],
      "stateMutability": "view",
      "type": "function"
    },
    {
      "inputs": [],
      "name": "owner",
      "outputs": [
        {
          "internalType": "address",
          "name": "",
          "type": "address"
        }
      ],
      "stateMutability": "view",
      "type": "function"
    },
    {
      "inputs": [
        {
          "internalType": "uint256",
          "name": "tokenId",
          "type": "uint256"
        }
      ],
      "name": "ownerOf",
      "outputs": [
        {
          "internalType": "address",
          "name": "",
          "type": "address"
        }
      ],
      "stateMutability": "view",
      "type": "function"
    },
    {
      "inputs": [],
      "name": "renounceOwnership",
      "outputs": [],
      "stateMutability": "nonpayable",
      "type": "function"
    },
    {
      "inputs": [
        {
          "internalType": "uint256",
          "name": "",
          "type": "uint256"
        },
        {
          "internalType": "uint256",
          "name": "salePrice",
          "type": "uint256"
        }
      ],
      "name": "royaltyInfo",
      "outputs": [
        {
          "internalType": "address",
          "name": "receiver",
          "type": "address"
        },
        {
          "internalType": "uint256",
          "name": "royaltyAmount",
          "type": "uint256"
        }
      ],
      "stateMutability": "view",
      "type": "function"
    },
    {
      "inputs": [
        {
          "internalType": "address",
          "name": "from",
          "type": "address"
        },
        {
          "internalType": "address",
          "name": "to",
          "type": "address"
        },
        {
          "internalType": "uint256",
          "name": "tokenId",
          "type": "uint256"
        }
      ],
      "name": "safeTransferFrom",
      "outputs": [],
      "stateMutability": "nonpayable",
      "type": "function"
    },
    {
      "inputs": [
        {
          "internalType": "address",
          "name": "from",
          "type": "address"
        },
        {
          "internalType": "address",
          "name": "to",
          "type": "address"
        },
        {
          "internalType": "uint256",
          "name": "tokenId",
          "type": "uint256"
        },
        {
          "internalType": "bytes",
          "name": "_data",
          "type": "bytes"
        }
      ],
      "name": "safeTransferFrom",
      "outputs": [],
      "stateMutability": "nonpayable",
      "type": "function"
    },
    {
      "inputs": [],
      "name": "saleIsActive",
      "outputs": [
        {
          "internalType": "bool",
          "name": "",
          "type": "bool"
        }
      ],
      "stateMutability": "view",
      "type": "function"
    },
    {
      "inputs": [
        {
          "internalType": "address",
          "name": "operator",
          "type": "address"
        },
        {
          "internalType": "bool",
          "name": "approved",
          "type": "bool"
        }
      ],
      "name": "setApprovalForAll",
      "outputs": [],
      "stateMutability": "nonpayable",
      "type": "function"
    },
    {
      "inputs": [
        {
          "internalType": "string",
          "name": "metadataURI_",
          "type": "string"
        }
      ],
      "name": "setMetadataURI",
      "outputs": [],
      "stateMutability": "nonpayable",
      "type": "function"
    },
    {
      "inputs": [
        {
          "internalType": "bool",
          "name": "saleIsActive_",
          "type": "bool"
        }
      ],
      "name": "setSaleIsActive",
      "outputs": [],
      "stateMutability": "nonpayable",
      "type": "function"
    },
    {
      "inputs": [
        {
          "internalType": "bytes4",
          "name": "interfaceId",
          "type": "bytes4"
        }
      ],
      "name": "supportsInterface",
      "outputs": [
        {
          "internalType": "bool",
          "name": "",
          "type": "bool"
        }
      ],
      "stateMutability": "view",
      "type": "function"
    },
    {
      "inputs": [],
      "name": "symbol",
      "outputs": [
        {
          "internalType": "string",
          "name": "",
          "type": "string"
        }
      ],
      "stateMutability": "view",
      "type": "function"
    },
    {
      "inputs": [
        {
          "internalType": "uint256",
          "name": "tokenId",
          "type": "uint256"
        }
      ],
      "name": "tokenURI",
      "outputs": [
        {
          "internalType": "string",
          "name": "",
          "type": "string"
        }
      ],
      "stateMutability": "view",
      "type": "function"
    },
    {
      "inputs": [],
      "name": "totalSupply",
      "outputs": [
        {
          "internalType": "uint256",
          "name": "",
          "type": "uint256"
        }
      ],
      "stateMutability": "view",
      "type": "function"
    },
    {
      "inputs": [
        {
          "internalType": "address",
          "name": "from",
          "type": "address"
        },
        {
          "internalType": "address",
          "name": "to",
          "type": "address"
        },
        {
          "internalType": "uint256",
          "name": "tokenId",
          "type": "uint256"
        }
      ],
      "name": "transferFrom",
      "outputs": [],
      "stateMutability": "nonpayable",
      "type": "function"
    },
    {
      "inputs": [
        {
          "internalType": "address",
          "name": "newOwner",
          "type": "address"
        }
      ],
      "name": "transferOwnership",
      "outputs": [],
      "stateMutability": "nonpayable",
      "type": "function"
    },
    {
      "inputs": [],
      "name": "withdraw",
      "outputs": [],
      "stateMutability": "nonpayable",
      "type": "function"
    }
  ],
  "bytecode": "0x60806040526001600b60006101000a81548160ff0219169083151502179055503480156200002c57600080fd5b506040518060400160405280600f81526020017f4361726c416e647265446f63656e7400000000000000000000000000000000008152506040518060400160405280600481526020017f44434e54000000000000000000000000000000000000000000000000000000008152508160009080519060200190620000b1929190620001c9565b508060019080519060200190620000ca929190620001c9565b5050506001600681905550620000f5620000e9620000fb60201b60201c565b6200010360201b60201c565b620002de565b600033905090565b6000600860009054906101000a900473ffffffffffffffffffffffffffffffffffffffff16905081600860006101000a81548173ffffffffffffffffffffffffffffffffffffffff021916908373ffffffffffffffffffffffffffffffffffffffff1602179055508173ffffffffffffffffffffffffffffffffffffffff168173ffffffffffffffffffffffffffffffffffffffff167f8be0079c531659141344cd1fd0a4f28419497f9722a3daafe3b4186f6b6457e060405160405180910390a35050565b828054620001d790620002a8565b90600052602060002090601f016020900481019282620001fb576000855562000247565b82601f106200021657805160ff191683800117855562000247565b8280016001018555821562000247579182015b828111156200024657825182559160200191906001019062000229565b5b5090506200025691906200025a565b5090565b5b80821115620002755760008160009055506001016200025b565b5090565b7f4e487b7100000000000000000000000000000000000000000000000000000000600052602260045260246000fd5b60006002820490506001821680620002c157607f821691505b60208210811415620002d857620002d762000279565b5b50919050565b613cc280620002ee6000396000f3fe6080604052600436106101665760003560e01c806370a08231116100d1578063a0712d681161008a578063c87b56dd11610064578063c87b56dd14610508578063e985e9c514610545578063eb8d244414610582578063f2fde38b146105ad57610166565b8063a0712d681461049a578063a22cb465146104b6578063b88d4fde146104df57610166565b806370a082311461039c578063715018a6146103d9578063750521f5146103f05780638d859f3e146104195780638da5cb5b1461044457806395d89b411461046f57610166565b806323b872dd1161012357806323b872dd1461028d5780632a55205a146102b657806332cb6b0c146102f45780633ccfd60b1461031f57806342842e0e146103365780636352211e1461035f57610166565b806301ffc9a71461016b57806302c88989146101a857806306fdde03146101d1578063081812fc146101fc578063095ea7b31461023957806318160ddd14610262575b600080fd5b34801561017757600080fd5b50610192600480360381019061018d91906124e9565b6105d6565b60405161019f9190612531565b60405180910390f35b3480156101b457600080fd5b506101cf60048036038101906101ca9190612578565b610650565b005b3480156101dd57600080fd5b506101e66106e9565b6040516101f3919061263e565b60405180910390f35b34801561020857600080fd5b50610223600480360381019061021e9190612696565b61077b565b6040516102309190612704565b60405180910390f35b34801561024557600080fd5b50610260600480360381019061025b919061274b565b610800565b005b34801561026e57600080fd5b50610277610918565b604051610284919061279a565b60405180910390f35b34801561029957600080fd5b506102b460048036038101906102af91906127b5565b610929565b005b3480156102c257600080fd5b506102dd60048036038101906102d89190612808565b610989565b6040516102eb929190612848565b60405180910390f35b34801561030057600080fd5b506103096109b3565b604051610316919061279a565b60405180910390f35b34801561032b57600080fd5b506103346109b8565b005b34801561034257600080fd5b5061035d600480360381019061035891906127b5565b610aab565b005b34801561036b57600080fd5b5061038660048036038101906103819190612696565b610acb565b6040516103939190612704565b60405180910390f35b3480156103a857600080fd5b506103c360048036038101906103be9190612871565b610b7d565b6040516103d0919061279a565b60405180910390f35b3480156103e557600080fd5b506103ee610c35565b005b3480156103fc57600080fd5b50610417600480360381019061041291906129d3565b610cbd565b005b34801561042557600080fd5b5061042e610d53565b60405161043b919061279a565b60405180910390f35b34801561045057600080fd5b50610459610d5e565b6040516104669190612704565b60405180910390f35b34801561047b57600080fd5b50610484610d88565b604051610491919061263e565b60405180910390f35b6104b460048036038101906104af9190612696565b610e1a565b005b3480156104c257600080fd5b506104dd60048036038101906104d89190612a1c565b611050565b005b3480156104eb57600080fd5b5061050660048036038101906105019190612afd565b611066565b005b34801561051457600080fd5b5061052f600480360381019061052a9190612696565b6110c8565b60405161053c919061263e565b60405180910390f35b34801561055157600080fd5b5061056c60048036038101906105679190612b80565b6110da565b6040516105799190612531565b60405180910390f35b34801561058e57600080fd5b5061059761116e565b6040516105a49190612531565b60405180910390f35b3480156105b957600080fd5b506105d460048036038101906105cf9190612871565b611181565b005b60007f2a55205a000000000000000000000000000000000000000000000000000000007bffffffffffffffffffffffffffffffffffffffffffffffffffffffff1916827bffffffffffffffffffffffffffffffffffffffffffffffffffffffff19161480610649575061064882611279565b5b9050919050565b61065861135b565b73ffffffffffffffffffffffffffffffffffffffff16610676610d5e565b73ffffffffffffffffffffffffffffffffffffffff16146106cc576040517f08c379a00000000000000000000000000000000000000000000000000000000081526004016106c390612c0c565b60405180910390fd5b80600b60006101000a81548160ff02191690831515021790555050565b6060600080546106f890612c5b565b80601f016020809104026020016040519081016040528092919081815260200182805461072490612c5b565b80156107715780601f1061074657610100808354040283529160200191610771565b820191906000526020600020905b81548152906001019060200180831161075457829003601f168201915b5050505050905090565b600061078682611363565b6107c5576040517f08c379a00000000000000000000000000000000000000000000000000000000081526004016107bc90612cff565b60405180910390fd5b6004600083815260200190815260200160002060009054906101000a900473ffffffffffffffffffffffffffffffffffffffff169050919050565b600061080b82610acb565b90508073ffffffffffffffffffffffffffffffffffffffff168373ffffffffffffffffffffffffffffffffffffffff16141561087c576040517f08c379a000000000000000000000000000000000000000000000000000000000815260040161087390612d91565b60405180910390fd5b8073ffffffffffffffffffffffffffffffffffffffff1661089b61135b565b73ffffffffffffffffffffffffffffffffffffffff1614806108ca57506108c9816108c461135b565b6110da565b5b610909576040517f08c379a000000000000000000000000000000000000000000000000000000000815260040161090090612e23565b60405180910390fd5b61091383836113cf565b505050565b60006109246009611488565b905090565b61093a61093461135b565b82611496565b610979576040517f08c379a000000000000000000000000000000000000000000000000000000000815260040161097090612eb5565b60405180910390fd5b610984838383611574565b505050565b600080306127106103e88561099e9190612f04565b6109a89190612f8d565b915091509250929050565b601e81565b600260065414156109fe576040517f08c379a00000000000000000000000000000000000000000000000000000000081526004016109f59061300a565b60405180910390fd5b60026006819055506000479050610a34610a16610d5e565b6064602884610a259190612f04565b610a2f9190612f8d565b6117db565b610a6a73d7e8d1a3534cda62c6574309d8100c1c7b52241c6064601e84610a5b9190612f04565b610a659190612f8d565b6117db565b610aa07351893553130b4468c22694fa7434cf05b03cce416064601e84610a919190612f04565b610a9b9190612f8d565b6117db565b506001600681905550565b610ac683838360405180602001604052806000815250611066565b505050565b6000806002600084815260200190815260200160002060009054906101000a900473ffffffffffffffffffffffffffffffffffffffff169050600073ffffffffffffffffffffffffffffffffffffffff168173ffffffffffffffffffffffffffffffffffffffff161415610b74576040517f08c379a0000000000000000000000000000000000000000000000000000000008152600401610b6b9061309c565b60405180910390fd5b80915050919050565b60008073ffffffffffffffffffffffffffffffffffffffff168273ffffffffffffffffffffffffffffffffffffffff161415610bee576040517f08c379a0000000000000000000000000000000000000000000000000000000008152600401610be59061312e565b60405180910390fd5b600360008373ffffffffffffffffffffffffffffffffffffffff1673ffffffffffffffffffffffffffffffffffffffff168152602001908152602001600020549050919050565b610c3d61135b565b73ffffffffffffffffffffffffffffffffffffffff16610c5b610d5e565b73ffffffffffffffffffffffffffffffffffffffff1614610cb1576040517f08c379a0000000000000000000000000000000000000000000000000000000008152600401610ca890612c0c565b60405180910390fd5b610cbb60006118cf565b565b610cc561135b565b73ffffffffffffffffffffffffffffffffffffffff16610ce3610d5e565b73ffffffffffffffffffffffffffffffffffffffff1614610d39576040517f08c379a0000000000000000000000000000000000000000000000000000000008152600401610d3090612c0c565b60405180910390fd5b80600a9080519060200190610d4f9291906123da565b5050565b66470de4df82000081565b6000600860009054906101000a900473ffffffffffffffffffffffffffffffffffffffff16905090565b606060018054610d9790612c5b565b80601f0160208091040260200160405190810160405280929190818152602001828054610dc390612c5b565b8015610e105780601f10610de557610100808354040283529160200191610e10565b820191906000526020600020905b815481529060010190602001808311610df357829003601f168201915b5050505050905090565b60026006541415610e60576040517f08c379a0000000000000000000000000000000000000000000000000000000008152600401610e579061300a565b60405180910390fd5b6002600681905550600b60009054906101000a900460ff16610eb7576040517f08c379a0000000000000000000000000000000000000000000000000000000008152600401610eae9061319a565b60405180910390fd5b601e610ec1610918565b10610f01576040517f08c379a0000000000000000000000000000000000000000000000000000000008152600401610ef890613206565b60405180910390fd5b66470de4df820000341015610f4b576040517f08c379a0000000000000000000000000000000000000000000000000000000008152600401610f4290613272565b60405180910390fd5b6000600a8054610f5a90612c5b565b90501415610f9d576040517f08c379a0000000000000000000000000000000000000000000000000000000008152600401610f94906132de565b60405180910390fd5b610fa73382611995565b61103b81600a8054610fb890612c5b565b80601f0160208091040260200160405190810160405280929190818152602001828054610fe490612c5b565b80156110315780601f1061100657610100808354040283529160200191611031565b820191906000526020600020905b81548152906001019060200180831161101457829003601f168201915b50505050506119b3565b6110456009611a27565b600160068190555050565b61106261105b61135b565b8383611a3d565b5050565b61107761107161135b565b83611496565b6110b6576040517f08c379a00000000000000000000000000000000000000000000000000000000081526004016110ad90612eb5565b60405180910390fd5b6110c284848484611baa565b50505050565b60606110d382611c06565b9050919050565b6000600560008473ffffffffffffffffffffffffffffffffffffffff1673ffffffffffffffffffffffffffffffffffffffff16815260200190815260200160002060008373ffffffffffffffffffffffffffffffffffffffff1673ffffffffffffffffffffffffffffffffffffffff16815260200190815260200160002060009054906101000a900460ff16905092915050565b600b60009054906101000a900460ff1681565b61118961135b565b73ffffffffffffffffffffffffffffffffffffffff166111a7610d5e565b73ffffffffffffffffffffffffffffffffffffffff16146111fd576040517f08c379a00000000000000000000000000000000000000000000000000000000081526004016111f490612c0c565b60405180910390fd5b600073ffffffffffffffffffffffffffffffffffffffff168173ffffffffffffffffffffffffffffffffffffffff16141561126d576040517f08c379a000000000000000000000000000000000000000000000000000000000815260040161126490613370565b60405180910390fd5b611276816118cf565b50565b60007f80ac58cd000000000000000000000000000000000000000000000000000000007bffffffffffffffffffffffffffffffffffffffffffffffffffffffff1916827bffffffffffffffffffffffffffffffffffffffffffffffffffffffff1916148061134457507f5b5e139f000000000000000000000000000000000000000000000000000000007bffffffffffffffffffffffffffffffffffffffffffffffffffffffff1916827bffffffffffffffffffffffffffffffffffffffffffffffffffffffff1916145b80611354575061135382611d58565b5b9050919050565b600033905090565b60008073ffffffffffffffffffffffffffffffffffffffff166002600084815260200190815260200160002060009054906101000a900473ffffffffffffffffffffffffffffffffffffffff1673ffffffffffffffffffffffffffffffffffffffff1614159050919050565b816004600083815260200190815260200160002060006101000a81548173ffffffffffffffffffffffffffffffffffffffff021916908373ffffffffffffffffffffffffffffffffffffffff160217905550808273ffffffffffffffffffffffffffffffffffffffff1661144283610acb565b73ffffffffffffffffffffffffffffffffffffffff167f8c5be1e5ebec7d5bd14f71427d1e84f3dd0314c0f7b2291e5b200ac8c7c3b92560405160405180910390a45050565b600081600001549050919050565b60006114a182611363565b6114e0576040517f08c379a00000000000000000000000000000000000000000000000000000000081526004016114d790613402565b60405180910390fd5b60006114eb83610acb565b90508073ffffffffffffffffffffffffffffffffffffffff168473ffffffffffffffffffffffffffffffffffffffff16148061152d575061152c81856110da565b5b8061156b57508373ffffffffffffffffffffffffffffffffffffffff166115538461077b565b73ffffffffffffffffffffffffffffffffffffffff16145b91505092915050565b8273ffffffffffffffffffffffffffffffffffffffff1661159482610acb565b73ffffffffffffffffffffffffffffffffffffffff16146115ea576040517f08c379a00000000000000000000000000000000000000000000000000000000081526004016115e190613494565b60405180910390fd5b600073ffffffffffffffffffffffffffffffffffffffff168273ffffffffffffffffffffffffffffffffffffffff16141561165a576040517f08c379a000000000000000000000000000000000000000000000000000000000815260040161165190613526565b60405180910390fd5b611665838383611dc2565b6116706000826113cf565b6001600360008573ffffffffffffffffffffffffffffffffffffffff1673ffffffffffffffffffffffffffffffffffffffff16815260200190815260200160002060008282546116c09190613546565b925050819055506001600360008473ffffffffffffffffffffffffffffffffffffffff1673ffffffffffffffffffffffffffffffffffffffff1681526020019081526020016000206000828254611717919061357a565b92505081905550816002600083815260200190815260200160002060006101000a81548173ffffffffffffffffffffffffffffffffffffffff021916908373ffffffffffffffffffffffffffffffffffffffff160217905550808273ffffffffffffffffffffffffffffffffffffffff168473ffffffffffffffffffffffffffffffffffffffff167fddf252ad1be2c89b69c2b068fc378daa952ba7f163c4a11628f55a4df523b3ef60405160405180910390a46117d6838383611dc7565b505050565b8047101561181e576040517f08c379a00000000000000000000000000000000000000000000000000000000081526004016118159061361c565b60405180910390fd5b60008273ffffffffffffffffffffffffffffffffffffffff16826040516118449061366d565b60006040518083038185875af1925050503d8060008114611881576040519150601f19603f3d011682016040523d82523d6000602084013e611886565b606091505b50509050806118ca576040517f08c379a00000000000000000000000000000000000000000000000000000000081526004016118c1906136f4565b60405180910390fd5b505050565b6000600860009054906101000a900473ffffffffffffffffffffffffffffffffffffffff16905081600860006101000a81548173ffffffffffffffffffffffffffffffffffffffff021916908373ffffffffffffffffffffffffffffffffffffffff1602179055508173ffffffffffffffffffffffffffffffffffffffff168173ffffffffffffffffffffffffffffffffffffffff167f8be0079c531659141344cd1fd0a4f28419497f9722a3daafe3b4186f6b6457e060405160405180910390a35050565b6119af828260405180602001604052806000815250611dcc565b5050565b6119bc82611363565b6119fb576040517f08c379a00000000000000000000000000000000000000000000000000000000081526004016119f290613786565b60405180910390fd5b80600760008481526020019081526020016000209080519060200190611a229291906123da565b505050565b6001816000016000828254019250508190555050565b8173ffffffffffffffffffffffffffffffffffffffff168373ffffffffffffffffffffffffffffffffffffffff161415611aac576040517f08c379a0000000000000000000000000000000000000000000000000000000008152600401611aa3906137f2565b60405180910390fd5b80600560008573ffffffffffffffffffffffffffffffffffffffff1673ffffffffffffffffffffffffffffffffffffffff16815260200190815260200160002060008473ffffffffffffffffffffffffffffffffffffffff1673ffffffffffffffffffffffffffffffffffffffff16815260200190815260200160002060006101000a81548160ff0219169083151502179055508173ffffffffffffffffffffffffffffffffffffffff168373ffffffffffffffffffffffffffffffffffffffff167f17307eab39ab6107e8899845ad3d59bd9653f200f220920489ca2b5937696c3183604051611b9d9190612531565b60405180910390a3505050565b611bb5848484611574565b611bc184848484611e27565b611c00576040517f08c379a0000000000000000000000000000000000000000000000000000000008152600401611bf790613884565b60405180910390fd5b50505050565b6060611c1182611363565b611c50576040517f08c379a0000000000000000000000000000000000000000000000000000000008152600401611c4790613916565b60405180910390fd5b6000600760008481526020019081526020016000208054611c7090612c5b565b80601f0160208091040260200160405190810160405280929190818152602001828054611c9c90612c5b565b8015611ce95780601f10611cbe57610100808354040283529160200191611ce9565b820191906000526020600020905b815481529060010190602001808311611ccc57829003601f168201915b505050505090506000611cfa611fbe565b9050600081511415611d10578192505050611d53565b600082511115611d45578082604051602001611d2d929190613972565b60405160208183030381529060405292505050611d53565b611d4e84611fd5565b925050505b919050565b60007f01ffc9a7000000000000000000000000000000000000000000000000000000007bffffffffffffffffffffffffffffffffffffffffffffffffffffffff1916827bffffffffffffffffffffffffffffffffffffffffffffffffffffffff1916149050919050565b505050565b505050565b611dd6838361207c565b611de36000848484611e27565b611e22576040517f08c379a0000000000000000000000000000000000000000000000000000000008152600401611e1990613884565b60405180910390fd5b505050565b6000611e488473ffffffffffffffffffffffffffffffffffffffff16612256565b15611fb1578373ffffffffffffffffffffffffffffffffffffffff1663150b7a02611e7161135b565b8786866040518563ffffffff1660e01b8152600401611e9394939291906139eb565b602060405180830381600087803b158015611ead57600080fd5b505af1925050508015611ede57506040513d601f19601f82011682018060405250810190611edb9190613a4c565b60015b611f61573d8060008114611f0e576040519150601f19603f3d011682016040523d82523d6000602084013e611f13565b606091505b50600081511415611f59576040517f08c379a0000000000000000000000000000000000000000000000000000000008152600401611f5090613884565b60405180910390fd5b805181602001fd5b63150b7a0260e01b7bffffffffffffffffffffffffffffffffffffffffffffffffffffffff1916817bffffffffffffffffffffffffffffffffffffffffffffffffffffffff191614915050611fb6565b600190505b949350505050565b606060405180602001604052806000815250905090565b6060611fe082611363565b61201f576040517f08c379a000000000000000000000000000000000000000000000000000000000815260040161201690613aeb565b60405180910390fd5b6000612029611fbe565b905060008151116120495760405180602001604052806000815250612074565b8061205384612279565b604051602001612064929190613972565b6040516020818303038152906040525b915050919050565b600073ffffffffffffffffffffffffffffffffffffffff168273ffffffffffffffffffffffffffffffffffffffff1614156120ec576040517f08c379a00000000000000000000000000000000000000000000000000000000081526004016120e390613b57565b60405180910390fd5b6120f581611363565b15612135576040517f08c379a000000000000000000000000000000000000000000000000000000000815260040161212c90613bc3565b60405180910390fd5b61214160008383611dc2565b6001600360008473ffffffffffffffffffffffffffffffffffffffff1673ffffffffffffffffffffffffffffffffffffffff1681526020019081526020016000206000828254612191919061357a565b92505081905550816002600083815260200190815260200160002060006101000a81548173ffffffffffffffffffffffffffffffffffffffff021916908373ffffffffffffffffffffffffffffffffffffffff160217905550808273ffffffffffffffffffffffffffffffffffffffff16600073ffffffffffffffffffffffffffffffffffffffff167fddf252ad1be2c89b69c2b068fc378daa952ba7f163c4a11628f55a4df523b3ef60405160405180910390a461225260008383611dc7565b5050565b6000808273ffffffffffffffffffffffffffffffffffffffff163b119050919050565b606060008214156122c1576040518060400160405280600181526020017f300000000000000000000000000000000000000000000000000000000000000081525090506123d5565b600082905060005b600082146122f35780806122dc90613be3565b915050600a826122ec9190612f8d565b91506122c9565b60008167ffffffffffffffff81111561230f5761230e6128a8565b5b6040519080825280601f01601f1916602001820160405280156123415781602001600182028036833780820191505090505b5090505b600085146123ce5760018261235a9190613546565b9150600a856123699190613c2c565b6030612375919061357a565b60f81b81838151811061238b5761238a613c5d565b5b60200101907effffffffffffffffffffffffffffffffffffffffffffffffffffffffffffff1916908160001a905350600a856123c79190612f8d565b9450612345565b8093505050505b919050565b8280546123e690612c5b565b90600052602060002090601f016020900481019282612408576000855561244f565b82601f1061242157805160ff191683800117855561244f565b8280016001018555821561244f579182015b8281111561244e578251825591602001919060010190612433565b5b50905061245c9190612460565b5090565b5b80821115612479576000816000905550600101612461565b5090565b6000604051905090565b600080fd5b600080fd5b60007fffffffff0000000000000000000000000000000000000000000000000000000082169050919050565b6124c681612491565b81146124d157600080fd5b50565b6000813590506124e3816124bd565b92915050565b6000602082840312156124ff576124fe612487565b5b600061250d848285016124d4565b91505092915050565b60008115159050919050565b61252b81612516565b82525050565b60006020820190506125466000830184612522565b92915050565b61255581612516565b811461256057600080fd5b50565b6000813590506125728161254c565b92915050565b60006020828403121561258e5761258d612487565b5b600061259c84828501612563565b91505092915050565b600081519050919050565b600082825260208201905092915050565b60005b838110156125df5780820151818401526020810190506125c4565b838111156125ee576000848401525b50505050565b6000601f19601f8301169050919050565b6000612610826125a5565b61261a81856125b0565b935061262a8185602086016125c1565b612633816125f4565b840191505092915050565b600060208201905081810360008301526126588184612605565b905092915050565b6000819050919050565b61267381612660565b811461267e57600080fd5b50565b6000813590506126908161266a565b92915050565b6000602082840312156126ac576126ab612487565b5b60006126ba84828501612681565b91505092915050565b600073ffffffffffffffffffffffffffffffffffffffff82169050919050565b60006126ee826126c3565b9050919050565b6126fe816126e3565b82525050565b600060208201905061271960008301846126f5565b92915050565b612728816126e3565b811461273357600080fd5b50565b6000813590506127458161271f565b92915050565b6000806040838503121561276257612761612487565b5b600061277085828601612736565b925050602061278185828601612681565b9150509250929050565b61279481612660565b82525050565b60006020820190506127af600083018461278b565b92915050565b6000806000606084860312156127ce576127cd612487565b5b60006127dc86828701612736565b93505060206127ed86828701612736565b92505060406127fe86828701612681565b9150509250925092565b6000806040838503121561281f5761281e612487565b5b600061282d85828601612681565b925050602061283e85828601612681565b9150509250929050565b600060408201905061285d60008301856126f5565b61286a602083018461278b565b9392505050565b60006020828403121561288757612886612487565b5b600061289584828501612736565b91505092915050565b600080fd5b600080fd5b7f4e487b7100000000000000000000000000000000000000000000000000000000600052604160045260246000fd5b6128e0826125f4565b810181811067ffffffffffffffff821117156128ff576128fe6128a8565b5b80604052505050565b600061291261247d565b905061291e82826128d7565b919050565b600067ffffffffffffffff82111561293e5761293d6128a8565b5b612947826125f4565b9050602081019050919050565b82818337600083830152505050565b600061297661297184612923565b612908565b905082815260208101848484011115612992576129916128a3565b5b61299d848285612954565b509392505050565b600082601f8301126129ba576129b961289e565b5b81356129ca848260208601612963565b91505092915050565b6000602082840312156129e9576129e8612487565b5b600082013567ffffffffffffffff811115612a0757612a0661248c565b5b612a13848285016129a5565b91505092915050565b60008060408385031215612a3357612a32612487565b5b6000612a4185828601612736565b9250506020612a5285828601612563565b9150509250929050565b600067ffffffffffffffff821115612a7757612a766128a8565b5b612a80826125f4565b9050602081019050919050565b6000612aa0612a9b84612a5c565b612908565b905082815260208101848484011115612abc57612abb6128a3565b5b612ac7848285612954565b509392505050565b600082601f830112612ae457612ae361289e565b5b8135612af4848260208601612a8d565b91505092915050565b60008060008060808587031215612b1757612b16612487565b5b6000612b2587828801612736565b9450506020612b3687828801612736565b9350506040612b4787828801612681565b925050606085013567ffffffffffffffff811115612b6857612b6761248c565b5b612b7487828801612acf565b91505092959194509250565b60008060408385031215612b9757612b96612487565b5b6000612ba585828601612736565b9250506020612bb685828601612736565b9150509250929050565b7f4f776e61626c653a2063616c6c6572206973206e6f7420746865206f776e6572600082015250565b6000612bf66020836125b0565b9150612c0182612bc0565b602082019050919050565b60006020820190508181036000830152612c2581612be9565b9050919050565b7f4e487b7100000000000000000000000000000000000000000000000000000000600052602260045260246000fd5b60006002820490506001821680612c7357607f821691505b60208210811415612c8757612c86612c2c565b5b50919050565b7f4552433732313a20617070726f76656420717565727920666f72206e6f6e657860008201527f697374656e7420746f6b656e0000000000000000000000000000000000000000602082015250565b6000612ce9602c836125b0565b9150612cf482612c8d565b604082019050919050565b60006020820190508181036000830152612d1881612cdc565b9050919050565b7f4552433732313a20617070726f76616c20746f2063757272656e74206f776e6560008201527f7200000000000000000000000000000000000000000000000000000000000000602082015250565b6000612d7b6021836125b0565b9150612d8682612d1f565b604082019050919050565b60006020820190508181036000830152612daa81612d6e565b9050919050565b7f4552433732313a20617070726f76652063616c6c6572206973206e6f74206f7760008201527f6e6572206e6f7220617070726f76656420666f7220616c6c0000000000000000602082015250565b6000612e0d6038836125b0565b9150612e1882612db1565b604082019050919050565b60006020820190508181036000830152612e3c81612e00565b9050919050565b7f4552433732313a207472616e736665722063616c6c6572206973206e6f74206f60008201527f776e6572206e6f7220617070726f766564000000000000000000000000000000602082015250565b6000612e9f6031836125b0565b9150612eaa82612e43565b604082019050919050565b60006020820190508181036000830152612ece81612e92565b9050919050565b7f4e487b7100000000000000000000000000000000000000000000000000000000600052601160045260246000fd5b6000612f0f82612660565b9150612f1a83612660565b9250817fffffffffffffffffffffffffffffffffffffffffffffffffffffffffffffffff0483118215151615612f5357612f52612ed5565b5b828202905092915050565b7f4e487b7100000000000000000000000000000000000000000000000000000000600052601260045260246000fd5b6000612f9882612660565b9150612fa383612660565b925082612fb357612fb2612f5e565b5b828204905092915050565b7f5265656e7472616e637947756172643a207265656e7472616e742063616c6c00600082015250565b6000612ff4601f836125b0565b9150612fff82612fbe565b602082019050919050565b6000602082019050818103600083015261302381612fe7565b9050919050565b7f4552433732313a206f776e657220717565727920666f72206e6f6e657869737460008201527f656e7420746f6b656e0000000000000000000000000000000000000000000000602082015250565b60006130866029836125b0565b91506130918261302a565b604082019050919050565b600060208201905081810360008301526130b581613079565b9050919050565b7f4552433732313a2062616c616e636520717565727920666f7220746865207a6560008201527f726f206164647265737300000000000000000000000000000000000000000000602082015250565b6000613118602a836125b0565b9150613123826130bc565b604082019050919050565b600060208201905081810360008301526131478161310b565b9050919050565b7f53616c65206e6f74206163746976650000000000000000000000000000000000600082015250565b6000613184600f836125b0565b915061318f8261314e565b602082019050919050565b600060208201905081810360008301526131b381613177565b9050919050565b7f45786365656473206d617820737570706c790000000000000000000000000000600082015250565b60006131f06012836125b0565b91506131fb826131ba565b602082019050919050565b6000602082019050818103600083015261321f816131e3565b9050919050565b7f496e73756666696369656e74207061796d656e74000000000000000000000000600082015250565b600061325c6014836125b0565b915061326782613226565b602082019050919050565b6000602082019050818103600083015261328b8161324f565b9050919050565b7f4d65746164617461206e6f742073657400000000000000000000000000000000600082015250565b60006132c86010836125b0565b91506132d382613292565b602082019050919050565b600060208201905081810360008301526132f7816132bb565b9050919050565b7f4f776e61626c653a206e6577206f776e657220697320746865207a65726f206160008201527f6464726573730000000000000000000000000000000000000000000000000000602082015250565b600061335a6026836125b0565b9150613365826132fe565b604082019050919050565b600060208201905081810360008301526133898161334d565b9050919050565b7f4552433732313a206f70657261746f7220717565727920666f72206e6f6e657860008201527f697374656e7420746f6b656e0000000000000000000000000000000000000000602082015250565b60006133ec602c836125b0565b91506133f782613390565b604082019050919050565b6000602082019050818103600083015261341b816133df565b9050919050565b7f4552433732313a207472616e736665722066726f6d20696e636f72726563742060008201527f6f776e6572000000000000000000000000000000000000000000000000000000602082015250565b600061347e6025836125b0565b915061348982613422565b604082019050919050565b600060208201905081810360008301526134ad81613471565b9050919050565b7f4552433732313a207472616e7366657220746f20746865207a65726f2061646460008201527f7265737300000000000000000000000000000000000000000000000000000000602082015250565b60006135106024836125b0565b915061351b826134b4565b604082019050919050565b6000602082019050818103600083015261353f81613503565b9050919050565b600061355182612660565b915061355c83612660565b92508282101561356f5761356e612ed5565b5b828203905092915050565b600061358582612660565b915061359083612660565b9250827fffffffffffffffffffffffffffffffffffffffffffffffffffffffffffffffff038211156135c5576135c4612ed5565b5b828201905092915050565b7f416464726573733a20696e73756666696369656e742062616c616e6365000000600082015250565b6000613606601d836125b0565b9150613611826135d0565b602082019050919050565b60006020820190508181036000830152613635816135f9565b9050919050565b600081905092915050565b50565b600061365760008361363c565b915061366282613647565b600082019050919050565b60006136788261364a565b9150819050919050565b7f416464726573733a20756e61626c6520746f2073656e642076616c75652c207260008201527f6563697069656e74206d61792068617665207265766572746564000000000000602082015250565b60006136de603a836125b0565b91506136e982613682565b604082019050919050565b6000602082019050818103600083015261370d816136d1565b9050919050565b7f45524337323155524953746f726167653a2055524920736574206f66206e6f6e60008201527f6578697374656e7420746f6b656e000000000000000000000000000000000000602082015250565b6000613770602e836125b0565b915061377b82613714565b604082019050919050565b6000602082019050818103600083015261379f81613763565b9050919050565b7f4552433732313a20617070726f766520746f2063616c6c657200000000000000600082015250565b60006137dc6019836125b0565b91506137e7826137a6565b602082019050919050565b6000602082019050818103600083015261380b816137cf565b9050919050565b7f4552433732313a207472616e7366657220746f206e6f6e20455243373231526560008201527f63656976657220696d706c656d656e7465720000000000000000000000000000602082015250565b600061386e6032836125b0565b915061387982613812565b604082019050919050565b6000602082019050818103600083015261389d81613861565b9050919050565b7f45524337323155524953746f726167653a2055524920717565727920666f722060008201527f6e6f6e6578697374656e7420746f6b656e000000000000000000000000000000602082015250565b60006139006031836125b0565b915061390b826138a4565b604082019050919050565b6000602082019050818103600083015261392f816138f3565b9050919050565b600081905092915050565b600061394c826125a5565b6139568185613936565b93506139668185602086016125c1565b80840191505092915050565b600061397e8285613941565b915061398a8284613941565b91508190509392505050565b600081519050919050565b600082825260208201905092915050565b60006139bd82613996565b6139c781856139a1565b93506139d78185602086016125c1565b6139e0816125f4565b840191505092915050565b6000608082019050613a0060008301876126f5565b613a0d60208301866126f5565b613a1a604083018561278b565b8181036060830152613a2c81846139b2565b905095945050505050565b600081519050613a46816124bd565b92915050565b600060208284031215613a6257613a61612487565b5b6000613a7084828501613a37565b91505092915050565b7f4552433732314d657461646174613a2055524920717565727920666f72206e6f60008201527f6e6578697374656e7420746f6b656e0000000000000000000000000000000000602082015250565b6000613ad5602f836125b0565b9150613ae082613a79565b604082019050919050565b60006020820190508181036000830152613b0481613ac8565b9050919050565b7f4552433732313a206d696e7420746f20746865207a65726f2061646472657373600082015250565b6000613b416020836125b0565b9150613b4c82613b0b565b602082019050919050565b60006020820190508181036000830152613b7081613b34565b9050919050565b7f4552433732313a20746f6b656e20616c7265616479206d696e74656400000000600082015250565b6000613bad601c836125b0565b9150613bb882613b77565b602082019050919050565b60006020820190508181036000830152613bdc81613ba0565b9050919050565b6000613bee82612660565b91507fffffffffffffffffffffffffffffffffffffffffffffffffffffffffffffffff821415613c2157613c20612ed5565b5b600182019050919050565b6000613c3782612660565b9150613c4283612660565b925082613c5257613c51612f5e565b5b828206905092915050565b7f4e487b7100000000000000000000000000000000000000000000000000000000600052603260045260246000fdfea2646970667358221220707b14559a8acea49145461f6a65e7e24f0857a728a5138eda8d51b94c2cff1e64736f6c63430008090033",
  "linkReferences": {},
  "deployedLinkReferences": {}
}