{
  "_format": "hh-sol-artifact-1",
  "contractName": "DocentTest",
  "sourceName": "contracts/DocentTest.sol",
  "abi": [
    {
      "inputs": [],
      "stateMutability": "nonpayable",
      "type": "constructor"
    },
    {
      "anonymous": false,
      "inputs": [
        {
          "indexed": true,
          "internalType": "address",
          "name": "owner",
          "type": "address"
        },
        {
          "indexed": true,
          "internalType": "address",
          "name": "approved",
          "type": "address"
        },
        {
          "indexed": true,
          "internalType": "uint256",
          "name": "tokenId",
          "type": "uint256"
        }
      ],
      "name": "Approval",
      "type": "event"
    },
    {
      "anonymous": false,
      "inputs": [
        {
          "indexed": true,
          "internalType": "address",
          "name": "owner",
          "type": "address"
        },
        {
          "indexed": true,
          "internalType": "address",
          "name": "operator",
          "type": "address"
        },
        {
          "indexed": false,
          "internalType": "bool",
          "name": "approved",
          "type": "bool"
        }
      ],
      "name": "ApprovalForAll",
      "type": "event"
    },
    {
      "anonymous": false,
      "inputs": [
        {
          "indexed": true,
          "internalType": "address",
          "name": "previousOwner",
          "type": "address"
        },
        {
          "indexed": true,
          "internalType": "address",
          "name": "newOwner",
          "type": "address"
        }
      ],
      "name": "OwnershipTransferred",
      "type": "event"
    },
    {
      "anonymous": false,
      "inputs": [
        {
          "indexed": true,
          "internalType": "address",
          "name": "from",
          "type": "address"
        },
        {
          "indexed": true,
          "internalType": "address",
          "name": "to",
          "type": "address"
        },
        {
          "indexed": true,
          "internalType": "uint256",
          "name": "tokenId",
          "type": "uint256"
        }
      ],
      "name": "Transfer",
      "type": "event"
    },
    {
      "inputs": [
        {
          "internalType": "address",
          "name": "to",
          "type": "address"
        },
        {
          "internalType": "uint256",
          "name": "tokenId",
          "type": "uint256"
        }
      ],
      "name": "approve",
      "outputs": [],
      "stateMutability": "nonpayable",
      "type": "function"
    },
    {
      "inputs": [
        {
          "internalType": "address",
          "name": "owner",
          "type": "address"
        }
      ],
      "name": "balanceOf",
      "outputs": [
        {
          "internalType": "uint256",
          "name": "",
          "type": "uint256"
        }
      ],
      "stateMutability": "view",
      "type": "function"
    },
    {
      "inputs": [
        {
          "internalType": "uint256",
          "name": "tokenId",
          "type": "uint256"
        }
      ],
      "name": "getApproved",
      "outputs": [
        {
          "internalType": "address",
          "name": "",
          "type": "address"
        }
      ],
      "stateMutability": "view",
      "type": "function"
    },
    {
      "inputs": [
        {
          "internalType": "address",
          "name": "owner",
          "type": "address"
        },
        {
          "internalType": "address",
          "name": "operator",
          "type": "address"
        }
      ],
      "name": "isApprovedForAll",
      "outputs": [
        {
          "internalType": "bool",
          "name": "",
          "type": "bool"
        }
      ],
      "stateMutability": "view",
      "type": "function"
    },
    {
      "inputs": [
        {
          "internalType": "uint256",
          "name": "id",
          "type": "uint256"
        }
      ],
      "name": "mint",
      "outputs": [],
      "stateMutability": "payable",
      "type": "function"
    },
    {
      "inputs": [],
      "name": "name",
      "outputs": [
        {
          "internalType": "string",
          "name": "",
          "type": "string"
        }
      ],
      "stateMutability": "view",
      "type": "function"
    },
    {
      "inputs": [],
      "name": "owner",
      "outputs": [
        {
          "internalType": "address",
          "name": "",
          "type": "address"
        }
      ],
      "stateMutability": "view",
      "type": "function"
    },
    {
      "inputs": [
        {
          "internalType": "uint256",
          "name": "tokenId",
          "type": "uint256"
        }
      ],
      "name": "ownerOf",
      "outputs": [
        {
          "internalType": "address",
          "name": "",
          "type": "address"
        }
      ],
      "stateMutability": "view",
      "type": "function"
    },
    {
      "inputs": [],
      "name": "renounceOwnership",
      "outputs": [],
      "stateMutability": "nonpayable",
      "type": "function"
    },
    {
      "inputs": [
        {
          "internalType": "address",
          "name": "from",
          "type": "address"
        },
        {
          "internalType": "address",
          "name": "to",
          "type": "address"
        },
        {
          "internalType": "uint256",
          "name": "tokenId",
          "type": "uint256"
        }
      ],
      "name": "safeTransferFrom",
      "outputs": [],
      "stateMutability": "nonpayable",
      "type": "function"
    },
    {
      "inputs": [
        {
          "internalType": "address",
          "name": "from",
          "type": "address"
        },
        {
          "internalType": "address",
          "name": "to",
          "type": "address"
        },
        {
          "internalType": "uint256",
          "name": "tokenId",
          "type": "uint256"
        },
        {
          "internalType": "bytes",
          "name": "_data",
          "type": "bytes"
        }
      ],
      "name": "safeTransferFrom",
      "outputs": [],
      "stateMutability": "nonpayable",
      "type": "function"
    },
    {
      "inputs": [],
      "name": "saleIsActive",
      "outputs": [
        {
          "internalType": "bool",
          "name": "",
          "type": "bool"
        }
      ],
      "stateMutability": "view",
      "type": "function"
    },
    {
      "inputs": [
        {
          "internalType": "address",
          "name": "operator",
          "type": "address"
        },
        {
          "internalType": "bool",
          "name": "approved",
          "type": "bool"
        }
      ],
      "name": "setApprovalForAll",
      "outputs": [],
      "stateMutability": "nonpayable",
      "type": "function"
    },
    {
      "inputs": [
        {
          "internalType": "string",
          "name": "customBaseURI_",
          "type": "string"
        }
      ],
      "name": "setBaseURI",
      "outputs": [],
      "stateMutability": "nonpayable",
      "type": "function"
    },
    {
      "inputs": [
        {
          "internalType": "uint256[]",
          "name": "tokenIds",
          "type": "uint256[]"
        },
        {
          "internalType": "uint256",
          "name": "price_",
          "type": "uint256"
        }
      ],
      "name": "setBatchTokenPrice",
      "outputs": [],
      "stateMutability": "nonpayable",
      "type": "function"
    },
    {
      "inputs": [
        {
          "internalType": "uint256[]",
          "name": "tokenIds",
          "type": "uint256[]"
        },
        {
          "internalType": "string",
          "name": "tokenURI_",
          "type": "string"
        }
      ],
      "name": "setBatchTokenURI",
      "outputs": [],
      "stateMutability": "nonpayable",
      "type": "function"
    },
    {
      "inputs": [
        {
          "internalType": "bool",
          "name": "saleIsActive_",
          "type": "bool"
        }
      ],
      "name": "setSaleIsActive",
      "outputs": [],
      "stateMutability": "nonpayable",
      "type": "function"
    },
    {
      "inputs": [
        {
          "internalType": "uint256",
          "name": "tokenId",
          "type": "uint256"
        },
        {
          "internalType": "uint256",
          "name": "price_",
          "type": "uint256"
        }
      ],
      "name": "setTokenPrice",
      "outputs": [],
      "stateMutability": "nonpayable",
      "type": "function"
    },
    {
      "inputs": [
        {
          "internalType": "uint256",
          "name": "tokenId",
          "type": "uint256"
        },
        {
          "internalType": "string",
          "name": "tokenURI_",
          "type": "string"
        }
      ],
      "name": "setTokenURI",
      "outputs": [],
      "stateMutability": "nonpayable",
      "type": "function"
    },
    {
      "inputs": [
        {
          "internalType": "bytes4",
          "name": "interfaceId",
          "type": "bytes4"
        }
      ],
      "name": "supportsInterface",
      "outputs": [
        {
          "internalType": "bool",
          "name": "",
          "type": "bool"
        }
      ],
      "stateMutability": "view",
      "type": "function"
    },
    {
      "inputs": [],
      "name": "symbol",
      "outputs": [
        {
          "internalType": "string",
          "name": "",
          "type": "string"
        }
      ],
      "stateMutability": "view",
      "type": "function"
    },
    {
      "inputs": [
        {
          "internalType": "uint256",
          "name": "tokenId",
          "type": "uint256"
        }
      ],
      "name": "tokenPrice",
      "outputs": [
        {
          "internalType": "uint256",
          "name": "",
          "type": "uint256"
        }
      ],
      "stateMutability": "view",
      "type": "function"
    },
    {
      "inputs": [
        {
          "internalType": "uint256",
          "name": "tokenId",
          "type": "uint256"
        }
      ],
      "name": "tokenURI",
      "outputs": [
        {
          "internalType": "string",
          "name": "",
          "type": "string"
        }
      ],
      "stateMutability": "view",
      "type": "function"
    },
    {
      "inputs": [],
      "name": "totalSupply",
      "outputs": [
        {
          "internalType": "uint256",
          "name": "",
          "type": "uint256"
        }
      ],
      "stateMutability": "view",
      "type": "function"
    },
    {
      "inputs": [
        {
          "internalType": "address",
          "name": "from",
          "type": "address"
        },
        {
          "internalType": "address",
          "name": "to",
          "type": "address"
        },
        {
          "internalType": "uint256",
          "name": "tokenId",
          "type": "uint256"
        }
      ],
      "name": "transferFrom",
      "outputs": [],
      "stateMutability": "nonpayable",
      "type": "function"
    },
    {
      "inputs": [
        {
          "internalType": "address",
          "name": "newOwner",
          "type": "address"
        }
      ],
      "name": "transferOwnership",
      "outputs": [],
      "stateMutability": "nonpayable",
      "type": "function"
    },
    {
      "inputs": [],
      "name": "withdraw",
      "outputs": [],
      "stateMutability": "nonpayable",
      "type": "function"
    }
  ],
  "bytecode": "0x60806040526000600960006101000a81548160ff0219169083151502179055503480156200002c57600080fd5b506040518060400160405280600a81526020017f446f63656e7454657374000000000000000000000000000000000000000000008152506040518060400160405280600381526020017f44435400000000000000000000000000000000000000000000000000000000008152508160009080519060200190620000b1929190620001c9565b508060019080519060200190620000ca929190620001c9565b5050506001600681905550620000f5620000e9620000fb60201b60201c565b6200010360201b60201c565b620002de565b600033905090565b6000600760009054906101000a900473ffffffffffffffffffffffffffffffffffffffff16905081600760006101000a81548173ffffffffffffffffffffffffffffffffffffffff021916908373ffffffffffffffffffffffffffffffffffffffff1602179055508173ffffffffffffffffffffffffffffffffffffffff168173ffffffffffffffffffffffffffffffffffffffff167f8be0079c531659141344cd1fd0a4f28419497f9722a3daafe3b4186f6b6457e060405160405180910390a35050565b828054620001d790620002a8565b90600052602060002090601f016020900481019282620001fb576000855562000247565b82601f106200021657805160ff191683800117855562000247565b8280016001018555821562000247579182015b828111156200024657825182559160200191906001019062000229565b5b5090506200025691906200025a565b5090565b5b80821115620002755760008160009055506001016200025b565b5090565b7f4e487b7100000000000000000000000000000000000000000000000000000000600052602260045260246000fd5b60006002820490506001821680620002c157607f821691505b60208210811415620002d857620002d762000279565b5b50919050565b613d5c80620002ee6000396000f3fe60806040526004361061019c5760003560e01c80636352211e116100ec578063b88d4fde1161008a578063e985e9c511610064578063e985e9c51461059f578063eb685c47146105dc578063eb8d244414610605578063f2fde38b146106305761019c565b8063b88d4fde146104fc578063c87b56dd14610525578063d4ddce8a146105625761019c565b80638da5cb5b116100c65780638da5cb5b1461046157806395d89b411461048c578063a0712d68146104b7578063a22cb465146104d35761019c565b80636352211e146103d057806370a082311461040d578063715018a61461044a5761019c565b8063162094c4116101595780633ccfd60b116101335780633ccfd60b1461033e57806342842e0e146103555780634a6b77f81461037e57806355f804b3146103a75761019c565b8063162094c4146102c157806318160ddd146102ea57806323b872dd146103155761019c565b806301ffc9a7146101a157806302c88989146101de57806306fdde0314610207578063081812fc14610232578063095ea7b31461026f578063124e77ee14610298575b600080fd5b3480156101ad57600080fd5b506101c860048036038101906101c39190612587565b610659565b6040516101d591906125cf565b60405180910390f35b3480156101ea57600080fd5b5061020560048036038101906102009190612616565b61073b565b005b34801561021357600080fd5b5061021c6107d4565b60405161022991906126dc565b60405180910390f35b34801561023e57600080fd5b5061025960048036038101906102549190612734565b610866565b60405161026691906127a2565b60405180910390f35b34801561027b57600080fd5b50610296600480360381019061029191906127e9565b6108eb565b005b3480156102a457600080fd5b506102bf60048036038101906102ba9190612971565b610a03565b005b3480156102cd57600080fd5b506102e860048036038101906102e39190612a82565b610ad5565b005b3480156102f657600080fd5b506102ff610b7d565b60405161030c9190612aed565b60405180910390f35b34801561032157600080fd5b5061033c60048036038101906103379190612b08565b610b8e565b005b34801561034a57600080fd5b50610353610bee565b005b34801561036157600080fd5b5061037c60048036038101906103779190612b08565b610c5d565b005b34801561038a57600080fd5b506103a560048036038101906103a09190612b5b565b610c7d565b005b3480156103b357600080fd5b506103ce60048036038101906103c99190612bd3565b610d5f565b005b3480156103dc57600080fd5b506103f760048036038101906103f29190612734565b610df5565b60405161040491906127a2565b60405180910390f35b34801561041957600080fd5b50610434600480360381019061042f9190612c1c565b610ea7565b6040516104419190612aed565b60405180910390f35b34801561045657600080fd5b5061045f610f5f565b005b34801561046d57600080fd5b50610476610fe7565b60405161048391906127a2565b60405180910390f35b34801561049857600080fd5b506104a1611011565b6040516104ae91906126dc565b60405180910390f35b6104d160048036038101906104cc9190612734565b6110a3565b005b3480156104df57600080fd5b506104fa60048036038101906104f59190612c49565b61120b565b005b34801561050857600080fd5b50610523600480360381019061051e9190612d2a565b611221565b005b34801561053157600080fd5b5061054c60048036038101906105479190612734565b611283565b60405161055991906126dc565b60405180910390f35b34801561056e57600080fd5b5061058960048036038101906105849190612734565b611369565b6040516105969190612aed565b60405180910390f35b3480156105ab57600080fd5b506105c660048036038101906105c19190612dad565b611386565b6040516105d391906125cf565b60405180910390f35b3480156105e857600080fd5b5061060360048036038101906105fe9190612ded565b61141a565b005b34801561061157600080fd5b5061061a6114b2565b60405161062791906125cf565b60405180910390f35b34801561063c57600080fd5b5061065760048036038101906106529190612c1c565b6114c5565b005b60007f80ac58cd000000000000000000000000000000000000000000000000000000007bffffffffffffffffffffffffffffffffffffffffffffffffffffffff1916827bffffffffffffffffffffffffffffffffffffffffffffffffffffffff1916148061072457507f5b5e139f000000000000000000000000000000000000000000000000000000007bffffffffffffffffffffffffffffffffffffffffffffffffffffffff1916827bffffffffffffffffffffffffffffffffffffffffffffffffffffffff1916145b806107345750610733826115bd565b5b9050919050565b610743611627565b73ffffffffffffffffffffffffffffffffffffffff16610761610fe7565b73ffffffffffffffffffffffffffffffffffffffff16146107b7576040517f08c379a00000000000000000000000000000000000000000000000000000000081526004016107ae90612e79565b60405180910390fd5b80600960006101000a81548160ff02191690831515021790555050565b6060600080546107e390612ec8565b80601f016020809104026020016040519081016040528092919081815260200182805461080f90612ec8565b801561085c5780601f106108315761010080835404028352916020019161085c565b820191906000526020600020905b81548152906001019060200180831161083f57829003601f168201915b5050505050905090565b60006108718261162f565b6108b0576040517f08c379a00000000000000000000000000000000000000000000000000000000081526004016108a790612f6c565b60405180910390fd5b6004600083815260200190815260200160002060009054906101000a900473ffffffffffffffffffffffffffffffffffffffff169050919050565b60006108f682610df5565b90508073ffffffffffffffffffffffffffffffffffffffff168373ffffffffffffffffffffffffffffffffffffffff161415610967576040517f08c379a000000000000000000000000000000000000000000000000000000000815260040161095e90612ffe565b60405180910390fd5b8073ffffffffffffffffffffffffffffffffffffffff16610986611627565b73ffffffffffffffffffffffffffffffffffffffff1614806109b557506109b4816109af611627565b611386565b5b6109f4576040517f08c379a00000000000000000000000000000000000000000000000000000000081526004016109eb90613090565b60405180910390fd5b6109fe838361169b565b505050565b610a0b611627565b73ffffffffffffffffffffffffffffffffffffffff16610a29610fe7565b73ffffffffffffffffffffffffffffffffffffffff1614610a7f576040517f08c379a0000000000000000000000000000000000000000000000000000000008152600401610a7690612e79565b60405180910390fd5b60005b8251811015610ad05781600a6000858481518110610aa357610aa26130b0565b5b60200260200101518152602001908152602001600020819055508080610ac89061310e565b915050610a82565b505050565b610add611627565b73ffffffffffffffffffffffffffffffffffffffff16610afb610fe7565b73ffffffffffffffffffffffffffffffffffffffff1614610b51576040517f08c379a0000000000000000000000000000000000000000000000000000000008152600401610b4890612e79565b60405180910390fd5b80600c60008481526020019081526020016000209080519060200190610b78929190612478565b505050565b6000610b896008611754565b905090565b610b9f610b99611627565b82611762565b610bde576040517f08c379a0000000000000000000000000000000000000000000000000000000008152600401610bd5906131c9565b60405180910390fd5b610be9838383611840565b505050565b60026006541415610c34576040517f08c379a0000000000000000000000000000000000000000000000000000000008152600401610c2b90613235565b60405180910390fd5b60026006819055506000479050610c52610c4c610fe7565b82611aa7565b506001600681905550565b610c7883838360405180602001604052806000815250611221565b505050565b610c85611627565b73ffffffffffffffffffffffffffffffffffffffff16610ca3610fe7565b73ffffffffffffffffffffffffffffffffffffffff1614610cf9576040517f08c379a0000000000000000000000000000000000000000000000000000000008152600401610cf090612e79565b60405180910390fd5b60005b8251811015610d5a5781600c6000858481518110610d1d57610d1c6130b0565b5b602002602001015181526020019081526020016000209080519060200190610d46929190612478565b508080610d529061310e565b915050610cfc565b505050565b610d67611627565b73ffffffffffffffffffffffffffffffffffffffff16610d85610fe7565b73ffffffffffffffffffffffffffffffffffffffff1614610ddb576040517f08c379a0000000000000000000000000000000000000000000000000000000008152600401610dd290612e79565b60405180910390fd5b80600b9080519060200190610df1929190612478565b5050565b6000806002600084815260200190815260200160002060009054906101000a900473ffffffffffffffffffffffffffffffffffffffff169050600073ffffffffffffffffffffffffffffffffffffffff168173ffffffffffffffffffffffffffffffffffffffff161415610e9e576040517f08c379a0000000000000000000000000000000000000000000000000000000008152600401610e95906132c7565b60405180910390fd5b80915050919050565b60008073ffffffffffffffffffffffffffffffffffffffff168273ffffffffffffffffffffffffffffffffffffffff161415610f18576040517f08c379a0000000000000000000000000000000000000000000000000000000008152600401610f0f90613359565b60405180910390fd5b600360008373ffffffffffffffffffffffffffffffffffffffff1673ffffffffffffffffffffffffffffffffffffffff168152602001908152602001600020549050919050565b610f67611627565b73ffffffffffffffffffffffffffffffffffffffff16610f85610fe7565b73ffffffffffffffffffffffffffffffffffffffff1614610fdb576040517f08c379a0000000000000000000000000000000000000000000000000000000008152600401610fd290612e79565b60405180910390fd5b610fe56000611b9b565b565b6000600760009054906101000a900473ffffffffffffffffffffffffffffffffffffffff16905090565b60606001805461102090612ec8565b80601f016020809104026020016040519081016040528092919081815260200182805461104c90612ec8565b80156110995780601f1061106e57610100808354040283529160200191611099565b820191906000526020600020905b81548152906001019060200180831161107c57829003601f168201915b5050505050905090565b600260065414156110e9576040517f08c379a00000000000000000000000000000000000000000000000000000000081526004016110e090613235565b60405180910390fd5b6002600681905550600960009054906101000a900460ff16611140576040517f08c379a0000000000000000000000000000000000000000000000000000000008152600401611137906133c5565b60405180910390fd5b6000600a60008381526020019081526020016000205411611196576040517f08c379a000000000000000000000000000000000000000000000000000000000815260040161118d90613431565b60405180910390fd5b600a6000828152602001908152602001600020543410156111ec576040517f08c379a00000000000000000000000000000000000000000000000000000000081526004016111e39061349d565b60405180910390fd5b6111f63382611c61565b6112006008611e3b565b600160068190555050565b61121d611216611627565b8383611e51565b5050565b61123261122c611627565b83611762565b611271576040517f08c379a0000000000000000000000000000000000000000000000000000000008152600401611268906131c9565b60405180910390fd5b61127d84848484611fbe565b50505050565b60606000600c600084815260200190815260200160002080546112a590612ec8565b80601f01602080910402602001604051908101604052809291908181526020018280546112d190612ec8565b801561131e5780601f106112f35761010080835404028352916020019161131e565b820191906000526020600020905b81548152906001019060200180831161130157829003601f168201915b505050505090506000815111156113385780915050611364565b6113418361201a565b60405160200161135191906134f9565b6040516020818303038152906040529150505b919050565b6000600a6000838152602001908152602001600020549050919050565b6000600560008473ffffffffffffffffffffffffffffffffffffffff1673ffffffffffffffffffffffffffffffffffffffff16815260200190815260200160002060008373ffffffffffffffffffffffffffffffffffffffff1673ffffffffffffffffffffffffffffffffffffffff16815260200190815260200160002060009054906101000a900460ff16905092915050565b611422611627565b73ffffffffffffffffffffffffffffffffffffffff16611440610fe7565b73ffffffffffffffffffffffffffffffffffffffff1614611496576040517f08c379a000000000000000000000000000000000000000000000000000000000815260040161148d90612e79565b60405180910390fd5b80600a6000848152602001908152602001600020819055505050565b600960009054906101000a900460ff1681565b6114cd611627565b73ffffffffffffffffffffffffffffffffffffffff166114eb610fe7565b73ffffffffffffffffffffffffffffffffffffffff1614611541576040517f08c379a000000000000000000000000000000000000000000000000000000000815260040161153890612e79565b60405180910390fd5b600073ffffffffffffffffffffffffffffffffffffffff168173ffffffffffffffffffffffffffffffffffffffff1614156115b1576040517f08c379a00000000000000000000000000000000000000000000000000000000081526004016115a890613582565b60405180910390fd5b6115ba81611b9b565b50565b60007f01ffc9a7000000000000000000000000000000000000000000000000000000007bffffffffffffffffffffffffffffffffffffffffffffffffffffffff1916827bffffffffffffffffffffffffffffffffffffffffffffffffffffffff1916149050919050565b600033905090565b60008073ffffffffffffffffffffffffffffffffffffffff166002600084815260200190815260200160002060009054906101000a900473ffffffffffffffffffffffffffffffffffffffff1673ffffffffffffffffffffffffffffffffffffffff1614159050919050565b816004600083815260200190815260200160002060006101000a81548173ffffffffffffffffffffffffffffffffffffffff021916908373ffffffffffffffffffffffffffffffffffffffff160217905550808273ffffffffffffffffffffffffffffffffffffffff1661170e83610df5565b73ffffffffffffffffffffffffffffffffffffffff167f8c5be1e5ebec7d5bd14f71427d1e84f3dd0314c0f7b2291e5b200ac8c7c3b92560405160405180910390a45050565b600081600001549050919050565b600061176d8261162f565b6117ac576040517f08c379a00000000000000000000000000000000000000000000000000000000081526004016117a390613614565b60405180910390fd5b60006117b783610df5565b90508073ffffffffffffffffffffffffffffffffffffffff168473ffffffffffffffffffffffffffffffffffffffff1614806117f957506117f88185611386565b5b8061183757508373ffffffffffffffffffffffffffffffffffffffff1661181f84610866565b73ffffffffffffffffffffffffffffffffffffffff16145b91505092915050565b8273ffffffffffffffffffffffffffffffffffffffff1661186082610df5565b73ffffffffffffffffffffffffffffffffffffffff16146118b6576040517f08c379a00000000000000000000000000000000000000000000000000000000081526004016118ad906136a6565b60405180910390fd5b600073ffffffffffffffffffffffffffffffffffffffff168273ffffffffffffffffffffffffffffffffffffffff161415611926576040517f08c379a000000000000000000000000000000000000000000000000000000000815260040161191d90613738565b60405180910390fd5b6119318383836120c1565b61193c60008261169b565b6001600360008573ffffffffffffffffffffffffffffffffffffffff1673ffffffffffffffffffffffffffffffffffffffff168152602001908152602001600020600082825461198c9190613758565b925050819055506001600360008473ffffffffffffffffffffffffffffffffffffffff1673ffffffffffffffffffffffffffffffffffffffff16815260200190815260200160002060008282546119e3919061378c565b92505081905550816002600083815260200190815260200160002060006101000a81548173ffffffffffffffffffffffffffffffffffffffff021916908373ffffffffffffffffffffffffffffffffffffffff160217905550808273ffffffffffffffffffffffffffffffffffffffff168473ffffffffffffffffffffffffffffffffffffffff167fddf252ad1be2c89b69c2b068fc378daa952ba7f163c4a11628f55a4df523b3ef60405160405180910390a4611aa28383836120c6565b505050565b80471015611aea576040517f08c379a0000000000000000000000000000000000000000000000000000000008152600401611ae19061382e565b60405180910390fd5b60008273ffffffffffffffffffffffffffffffffffffffff1682604051611b109061387f565b60006040518083038185875af1925050503d8060008114611b4d576040519150601f19603f3d011682016040523d82523d6000602084013e611b52565b606091505b5050905080611b96576040517f08c379a0000000000000000000000000000000000000000000000000000000008152600401611b8d90613906565b60405180910390fd5b505050565b6000600760009054906101000a900473ffffffffffffffffffffffffffffffffffffffff16905081600760006101000a81548173ffffffffffffffffffffffffffffffffffffffff021916908373ffffffffffffffffffffffffffffffffffffffff1602179055508173ffffffffffffffffffffffffffffffffffffffff168173ffffffffffffffffffffffffffffffffffffffff167f8be0079c531659141344cd1fd0a4f28419497f9722a3daafe3b4186f6b6457e060405160405180910390a35050565b600073ffffffffffffffffffffffffffffffffffffffff168273ffffffffffffffffffffffffffffffffffffffff161415611cd1576040517f08c379a0000000000000000000000000000000000000000000000000000000008152600401611cc890613972565b60405180910390fd5b611cda8161162f565b15611d1a576040517f08c379a0000000000000000000000000000000000000000000000000000000008152600401611d11906139de565b60405180910390fd5b611d26600083836120c1565b6001600360008473ffffffffffffffffffffffffffffffffffffffff1673ffffffffffffffffffffffffffffffffffffffff1681526020019081526020016000206000828254611d76919061378c565b92505081905550816002600083815260200190815260200160002060006101000a81548173ffffffffffffffffffffffffffffffffffffffff021916908373ffffffffffffffffffffffffffffffffffffffff160217905550808273ffffffffffffffffffffffffffffffffffffffff16600073ffffffffffffffffffffffffffffffffffffffff167fddf252ad1be2c89b69c2b068fc378daa952ba7f163c4a11628f55a4df523b3ef60405160405180910390a4611e37600083836120c6565b5050565b6001816000016000828254019250508190555050565b8173ffffffffffffffffffffffffffffffffffffffff168373ffffffffffffffffffffffffffffffffffffffff161415611ec0576040517f08c379a0000000000000000000000000000000000000000000000000000000008152600401611eb790613a4a565b60405180910390fd5b80600560008573ffffffffffffffffffffffffffffffffffffffff1673ffffffffffffffffffffffffffffffffffffffff16815260200190815260200160002060008473ffffffffffffffffffffffffffffffffffffffff1673ffffffffffffffffffffffffffffffffffffffff16815260200190815260200160002060006101000a81548160ff0219169083151502179055508173ffffffffffffffffffffffffffffffffffffffff168373ffffffffffffffffffffffffffffffffffffffff167f17307eab39ab6107e8899845ad3d59bd9653f200f220920489ca2b5937696c3183604051611fb191906125cf565b60405180910390a3505050565b611fc9848484611840565b611fd5848484846120cb565b612014576040517f08c379a000000000000000000000000000000000000000000000000000000000815260040161200b90613adc565b60405180910390fd5b50505050565b60606120258261162f565b612064576040517f08c379a000000000000000000000000000000000000000000000000000000000815260040161205b90613b6e565b60405180910390fd5b600061206e612262565b9050600081511161208e57604051806020016040528060008152506120b9565b80612098846122f4565b6040516020016120a9929190613b8e565b6040516020818303038152906040525b915050919050565b505050565b505050565b60006120ec8473ffffffffffffffffffffffffffffffffffffffff16612455565b15612255578373ffffffffffffffffffffffffffffffffffffffff1663150b7a02612115611627565b8786866040518563ffffffff1660e01b81526004016121379493929190613c07565b602060405180830381600087803b15801561215157600080fd5b505af192505050801561218257506040513d601f19601f8201168201806040525081019061217f9190613c68565b60015b612205573d80600081146121b2576040519150601f19603f3d011682016040523d82523d6000602084013e6121b7565b606091505b506000815114156121fd576040517f08c379a00000000000000000000000000000000000000000000000000000000081526004016121f490613adc565b60405180910390fd5b805181602001fd5b63150b7a0260e01b7bffffffffffffffffffffffffffffffffffffffffffffffffffffffff1916817bffffffffffffffffffffffffffffffffffffffffffffffffffffffff19161491505061225a565b600190505b949350505050565b6060600b805461227190612ec8565b80601f016020809104026020016040519081016040528092919081815260200182805461229d90612ec8565b80156122ea5780601f106122bf576101008083540402835291602001916122ea565b820191906000526020600020905b8154815290600101906020018083116122cd57829003601f168201915b5050505050905090565b6060600082141561233c576040518060400160405280600181526020017f30000000000000000000000000000000000000000000000000000000000000008152509050612450565b600082905060005b6000821461236e5780806123579061310e565b915050600a826123679190613cc4565b9150612344565b60008167ffffffffffffffff81111561238a5761238961282e565b5b6040519080825280601f01601f1916602001820160405280156123bc5781602001600182028036833780820191505090505b5090505b60008514612449576001826123d59190613758565b9150600a856123e49190613cf5565b60306123f0919061378c565b60f81b818381518110612406576124056130b0565b5b60200101907effffffffffffffffffffffffffffffffffffffffffffffffffffffffffffff1916908160001a905350600a856124429190613cc4565b94506123c0565b8093505050505b919050565b6000808273ffffffffffffffffffffffffffffffffffffffff163b119050919050565b82805461248490612ec8565b90600052602060002090601f0160209004810192826124a657600085556124ed565b82601f106124bf57805160ff19168380011785556124ed565b828001600101855582156124ed579182015b828111156124ec5782518255916020019190600101906124d1565b5b5090506124fa91906124fe565b5090565b5b808211156125175760008160009055506001016124ff565b5090565b6000604051905090565b600080fd5b600080fd5b60007fffffffff0000000000000000000000000000000000000000000000000000000082169050919050565b6125648161252f565b811461256f57600080fd5b50565b6000813590506125818161255b565b92915050565b60006020828403121561259d5761259c612525565b5b60006125ab84828501612572565b91505092915050565b60008115159050919050565b6125c9816125b4565b82525050565b60006020820190506125e460008301846125c0565b92915050565b6125f3816125b4565b81146125fe57600080fd5b50565b600081359050612610816125ea565b92915050565b60006020828403121561262c5761262b612525565b5b600061263a84828501612601565b91505092915050565b600081519050919050565b600082825260208201905092915050565b60005b8381101561267d578082015181840152602081019050612662565b8381111561268c576000848401525b50505050565b6000601f19601f8301169050919050565b60006126ae82612643565b6126b8818561264e565b93506126c881856020860161265f565b6126d181612692565b840191505092915050565b600060208201905081810360008301526126f681846126a3565b905092915050565b6000819050919050565b612711816126fe565b811461271c57600080fd5b50565b60008135905061272e81612708565b92915050565b60006020828403121561274a57612749612525565b5b60006127588482850161271f565b91505092915050565b600073ffffffffffffffffffffffffffffffffffffffff82169050919050565b600061278c82612761565b9050919050565b61279c81612781565b82525050565b60006020820190506127b76000830184612793565b92915050565b6127c681612781565b81146127d157600080fd5b50565b6000813590506127e3816127bd565b92915050565b60008060408385031215612800576127ff612525565b5b600061280e858286016127d4565b925050602061281f8582860161271f565b9150509250929050565b600080fd5b7f4e487b7100000000000000000000000000000000000000000000000000000000600052604160045260246000fd5b61286682612692565b810181811067ffffffffffffffff821117156128855761288461282e565b5b80604052505050565b600061289861251b565b90506128a4828261285d565b919050565b600067ffffffffffffffff8211156128c4576128c361282e565b5b602082029050602081019050919050565b600080fd5b60006128ed6128e8846128a9565b61288e565b905080838252602082019050602084028301858111156129105761290f6128d5565b5b835b818110156129395780612925888261271f565b845260208401935050602081019050612912565b5050509392505050565b600082601f83011261295857612957612829565b5b81356129688482602086016128da565b91505092915050565b6000806040838503121561298857612987612525565b5b600083013567ffffffffffffffff8111156129a6576129a561252a565b5b6129b285828601612943565b92505060206129c38582860161271f565b9150509250929050565b600080fd5b600067ffffffffffffffff8211156129ed576129ec61282e565b5b6129f682612692565b9050602081019050919050565b82818337600083830152505050565b6000612a25612a20846129d2565b61288e565b905082815260208101848484011115612a4157612a406129cd565b5b612a4c848285612a03565b509392505050565b600082601f830112612a6957612a68612829565b5b8135612a79848260208601612a12565b91505092915050565b60008060408385031215612a9957612a98612525565b5b6000612aa78582860161271f565b925050602083013567ffffffffffffffff811115612ac857612ac761252a565b5b612ad485828601612a54565b9150509250929050565b612ae7816126fe565b82525050565b6000602082019050612b026000830184612ade565b92915050565b600080600060608486031215612b2157612b20612525565b5b6000612b2f868287016127d4565b9350506020612b40868287016127d4565b9250506040612b518682870161271f565b9150509250925092565b60008060408385031215612b7257612b71612525565b5b600083013567ffffffffffffffff811115612b9057612b8f61252a565b5b612b9c85828601612943565b925050602083013567ffffffffffffffff811115612bbd57612bbc61252a565b5b612bc985828601612a54565b9150509250929050565b600060208284031215612be957612be8612525565b5b600082013567ffffffffffffffff811115612c0757612c0661252a565b5b612c1384828501612a54565b91505092915050565b600060208284031215612c3257612c31612525565b5b6000612c40848285016127d4565b91505092915050565b60008060408385031215612c6057612c5f612525565b5b6000612c6e858286016127d4565b9250506020612c7f85828601612601565b9150509250929050565b600067ffffffffffffffff821115612ca457612ca361282e565b5b612cad82612692565b9050602081019050919050565b6000612ccd612cc884612c89565b61288e565b905082815260208101848484011115612ce957612ce86129cd565b5b612cf4848285612a03565b509392505050565b600082601f830112612d1157612d10612829565b5b8135612d21848260208601612cba565b91505092915050565b60008060008060808587031215612d4457612d43612525565b5b6000612d52878288016127d4565b9450506020612d63878288016127d4565b9350506040612d748782880161271f565b925050606085013567ffffffffffffffff811115612d9557612d9461252a565b5b612da187828801612cfc565b91505092959194509250565b60008060408385031215612dc457612dc3612525565b5b6000612dd2858286016127d4565b9250506020612de3858286016127d4565b9150509250929050565b60008060408385031215612e0457612e03612525565b5b6000612e128582860161271f565b9250506020612e238582860161271f565b9150509250929050565b7f4f776e61626c653a2063616c6c6572206973206e6f7420746865206f776e6572600082015250565b6000612e6360208361264e565b9150612e6e82612e2d565b602082019050919050565b60006020820190508181036000830152612e9281612e56565b9050919050565b7f4e487b7100000000000000000000000000000000000000000000000000000000600052602260045260246000fd5b60006002820490506001821680612ee057607f821691505b60208210811415612ef457612ef3612e99565b5b50919050565b7f4552433732313a20617070726f76656420717565727920666f72206e6f6e657860008201527f697374656e7420746f6b656e0000000000000000000000000000000000000000602082015250565b6000612f56602c8361264e565b9150612f6182612efa565b604082019050919050565b60006020820190508181036000830152612f8581612f49565b9050919050565b7f4552433732313a20617070726f76616c20746f2063757272656e74206f776e6560008201527f7200000000000000000000000000000000000000000000000000000000000000602082015250565b6000612fe860218361264e565b9150612ff382612f8c565b604082019050919050565b6000602082019050818103600083015261301781612fdb565b9050919050565b7f4552433732313a20617070726f76652063616c6c6572206973206e6f74206f7760008201527f6e6572206e6f7220617070726f76656420666f7220616c6c0000000000000000602082015250565b600061307a60388361264e565b91506130858261301e565b604082019050919050565b600060208201905081810360008301526130a98161306d565b9050919050565b7f4e487b7100000000000000000000000000000000000000000000000000000000600052603260045260246000fd5b7f4e487b7100000000000000000000000000000000000000000000000000000000600052601160045260246000fd5b6000613119826126fe565b91507fffffffffffffffffffffffffffffffffffffffffffffffffffffffffffffffff82141561314c5761314b6130df565b5b600182019050919050565b7f4552433732313a207472616e736665722063616c6c6572206973206e6f74206f60008201527f776e6572206e6f7220617070726f766564000000000000000000000000000000602082015250565b60006131b360318361264e565b91506131be82613157565b604082019050919050565b600060208201905081810360008301526131e2816131a6565b9050919050565b7f5265656e7472616e637947756172643a207265656e7472616e742063616c6c00600082015250565b600061321f601f8361264e565b915061322a826131e9565b602082019050919050565b6000602082019050818103600083015261324e81613212565b9050919050565b7f4552433732313a206f776e657220717565727920666f72206e6f6e657869737460008201527f656e7420746f6b656e0000000000000000000000000000000000000000000000602082015250565b60006132b160298361264e565b91506132bc82613255565b604082019050919050565b600060208201905081810360008301526132e0816132a4565b9050919050565b7f4552433732313a2062616c616e636520717565727920666f7220746865207a6560008201527f726f206164647265737300000000000000000000000000000000000000000000602082015250565b6000613343602a8361264e565b915061334e826132e7565b604082019050919050565b6000602082019050818103600083015261337281613336565b9050919050565b7f53616c65206e6f74206163746976650000000000000000000000000000000000600082015250565b60006133af600f8361264e565b91506133ba82613379565b602082019050919050565b600060208201905081810360008301526133de816133a2565b9050919050565b7f5072696365206e6f742073657400000000000000000000000000000000000000600082015250565b600061341b600d8361264e565b9150613426826133e5565b602082019050919050565b6000602082019050818103600083015261344a8161340e565b9050919050565b7f496e73756666696369656e74207061796d656e74000000000000000000000000600082015250565b600061348760148361264e565b915061349282613451565b602082019050919050565b600060208201905081810360008301526134b68161347a565b9050919050565b600081905092915050565b60006134d382612643565b6134dd81856134bd565b93506134ed81856020860161265f565b80840191505092915050565b600061350582846134c8565b915081905092915050565b7f4f776e61626c653a206e6577206f776e657220697320746865207a65726f206160008201527f6464726573730000000000000000000000000000000000000000000000000000602082015250565b600061356c60268361264e565b915061357782613510565b604082019050919050565b6000602082019050818103600083015261359b8161355f565b9050919050565b7f4552433732313a206f70657261746f7220717565727920666f72206e6f6e657860008201527f697374656e7420746f6b656e0000000000000000000000000000000000000000602082015250565b60006135fe602c8361264e565b9150613609826135a2565b604082019050919050565b6000602082019050818103600083015261362d816135f1565b9050919050565b7f4552433732313a207472616e736665722066726f6d20696e636f72726563742060008201527f6f776e6572000000000000000000000000000000000000000000000000000000602082015250565b600061369060258361264e565b915061369b82613634565b604082019050919050565b600060208201905081810360008301526136bf81613683565b9050919050565b7f4552433732313a207472616e7366657220746f20746865207a65726f2061646460008201527f7265737300000000000000000000000000000000000000000000000000000000602082015250565b600061372260248361264e565b915061372d826136c6565b604082019050919050565b6000602082019050818103600083015261375181613715565b9050919050565b6000613763826126fe565b915061376e836126fe565b925082821015613781576137806130df565b5b828203905092915050565b6000613797826126fe565b91506137a2836126fe565b9250827fffffffffffffffffffffffffffffffffffffffffffffffffffffffffffffffff038211156137d7576137d66130df565b5b828201905092915050565b7f416464726573733a20696e73756666696369656e742062616c616e6365000000600082015250565b6000613818601d8361264e565b9150613823826137e2565b602082019050919050565b600060208201905081810360008301526138478161380b565b9050919050565b600081905092915050565b50565b600061386960008361384e565b915061387482613859565b600082019050919050565b600061388a8261385c565b9150819050919050565b7f416464726573733a20756e61626c6520746f2073656e642076616c75652c207260008201527f6563697069656e74206d61792068617665207265766572746564000000000000602082015250565b60006138f0603a8361264e565b91506138fb82613894565b604082019050919050565b6000602082019050818103600083015261391f816138e3565b9050919050565b7f4552433732313a206d696e7420746f20746865207a65726f2061646472657373600082015250565b600061395c60208361264e565b915061396782613926565b602082019050919050565b6000602082019050818103600083015261398b8161394f565b9050919050565b7f4552433732313a20746f6b656e20616c7265616479206d696e74656400000000600082015250565b60006139c8601c8361264e565b91506139d382613992565b602082019050919050565b600060208201905081810360008301526139f7816139bb565b9050919050565b7f4552433732313a20617070726f766520746f2063616c6c657200000000000000600082015250565b6000613a3460198361264e565b9150613a3f826139fe565b602082019050919050565b60006020820190508181036000830152613a6381613a27565b9050919050565b7f4552433732313a207472616e7366657220746f206e6f6e20455243373231526560008201527f63656976657220696d706c656d656e7465720000000000000000000000000000602082015250565b6000613ac660328361264e565b9150613ad182613a6a565b604082019050919050565b60006020820190508181036000830152613af581613ab9565b9050919050565b7f4552433732314d657461646174613a2055524920717565727920666f72206e6f60008201527f6e6578697374656e7420746f6b656e0000000000000000000000000000000000602082015250565b6000613b58602f8361264e565b9150613b6382613afc565b604082019050919050565b60006020820190508181036000830152613b8781613b4b565b9050919050565b6000613b9a82856134c8565b9150613ba682846134c8565b91508190509392505050565b600081519050919050565b600082825260208201905092915050565b6000613bd982613bb2565b613be38185613bbd565b9350613bf381856020860161265f565b613bfc81612692565b840191505092915050565b6000608082019050613c1c6000830187612793565b613c296020830186612793565b613c366040830185612ade565b8181036060830152613c488184613bce565b905095945050505050565b600081519050613c628161255b565b92915050565b600060208284031215613c7e57613c7d612525565b5b6000613c8c84828501613c53565b91505092915050565b7f4e487b7100000000000000000000000000000000000000000000000000000000600052601260045260246000fd5b6000613ccf826126fe565b9150613cda836126fe565b925082613cea57613ce9613c95565b5b828204905092915050565b6000613d00826126fe565b9150613d0b836126fe565b925082613d1b57613d1a613c95565b5b82820690509291505056fea264697066735822122085f26754d0982c81169d84f91cdc62845dd21a60023e31801870acb97308131564736f6c63430008090033",
  "linkReferences": {},
  "deployedLinkReferences": {}
}