{
  "_format": "hh-sol-artifact-1",
  "contractName": "CarlAndre",
  "sourceName": "contracts/CarlAndre.sol",
  "abi": [
    {
      "inputs": [],
      "stateMutability": "nonpayable",
      "type": "constructor"
    },
    {
      "anonymous": false,
      "inputs": [
        {
          "indexed": true,
          "internalType": "address",
          "name": "owner",
          "type": "address"
        },
        {
          "indexed": true,
          "internalType": "address",
          "name": "approved",
          "type": "address"
        },
        {
          "indexed": true,
          "internalType": "uint256",
          "name": "tokenId",
          "type": "uint256"
        }
      ],
      "name": "Approval",
      "type": "event"
    },
    {
      "anonymous": false,
      "inputs": [
        {
          "indexed": true,
          "internalType": "address",
          "name": "owner",
          "type": "address"
        },
        {
          "indexed": true,
          "internalType": "address",
          "name": "operator",
          "type": "address"
        },
        {
          "indexed": false,
          "internalType": "bool",
          "name": "approved",
          "type": "bool"
        }
      ],
      "name": "ApprovalForAll",
      "type": "event"
    },
    {
      "anonymous": false,
      "inputs": [
        {
          "indexed": true,
          "internalType": "address",
          "name": "previousOwner",
          "type": "address"
        },
        {
          "indexed": true,
          "internalType": "address",
          "name": "newOwner",
          "type": "address"
        }
      ],
      "name": "OwnershipTransferred",
      "type": "event"
    },
    {
      "anonymous": false,
      "inputs": [
        {
          "indexed": true,
          "internalType": "address",
          "name": "from",
          "type": "address"
        },
        {
          "indexed": true,
          "internalType": "address",
          "name": "to",
          "type": "address"
        },
        {
          "indexed": true,
          "internalType": "uint256",
          "name": "tokenId",
          "type": "uint256"
        }
      ],
      "name": "Transfer",
      "type": "event"
    },
    {
      "inputs": [],
      "name": "MAX_SUPPLY",
      "outputs": [
        {
          "internalType": "uint256",
          "name": "",
          "type": "uint256"
        }
      ],
      "stateMutability": "view",
      "type": "function"
    },
    {
      "inputs": [],
      "name": "PRICE",
      "outputs": [
        {
          "internalType": "uint256",
          "name": "",
          "type": "uint256"
        }
      ],
      "stateMutability": "view",
      "type": "function"
    },
    {
      "inputs": [
        {
          "internalType": "address",
          "name": "to",
          "type": "address"
        },
        {
          "internalType": "uint256",
          "name": "tokenId",
          "type": "uint256"
        }
      ],
      "name": "approve",
      "outputs": [],
      "stateMutability": "nonpayable",
      "type": "function"
    },
    {
      "inputs": [
        {
          "internalType": "address",
          "name": "owner",
          "type": "address"
        }
      ],
      "name": "balanceOf",
      "outputs": [
        {
          "internalType": "uint256",
          "name": "",
          "type": "uint256"
        }
      ],
      "stateMutability": "view",
      "type": "function"
    },
    {
      "inputs": [],
      "name": "baseTokenURI",
      "outputs": [
        {
          "internalType": "string",
          "name": "",
          "type": "string"
        }
      ],
      "stateMutability": "view",
      "type": "function"
    },
    {
      "inputs": [
        {
          "internalType": "uint256",
          "name": "tokenId",
          "type": "uint256"
        }
      ],
      "name": "getApproved",
      "outputs": [
        {
          "internalType": "address",
          "name": "",
          "type": "address"
        }
      ],
      "stateMutability": "view",
      "type": "function"
    },
    {
      "inputs": [
        {
          "internalType": "address",
          "name": "owner",
          "type": "address"
        },
        {
          "internalType": "address",
          "name": "operator",
          "type": "address"
        }
      ],
      "name": "isApprovedForAll",
      "outputs": [
        {
          "internalType": "bool",
          "name": "",
          "type": "bool"
        }
      ],
      "stateMutability": "view",
      "type": "function"
    },
    {
      "inputs": [
        {
          "internalType": "uint256",
          "name": "tokenId",
          "type": "uint256"
        }
      ],
      "name": "mint",
      "outputs": [],
      "stateMutability": "payable",
      "type": "function"
    },
    {
      "inputs": [],
      "name": "name",
      "outputs": [
        {
          "internalType": "string",
          "name": "",
          "type": "string"
        }
      ],
      "stateMutability": "view",
      "type": "function"
    },
    {
      "inputs": [],
      "name": "owner",
      "outputs": [
        {
          "internalType": "address",
          "name": "",
          "type": "address"
        }
      ],
      "stateMutability": "view",
      "type": "function"
    },
    {
      "inputs": [
        {
          "internalType": "uint256",
          "name": "tokenId",
          "type": "uint256"
        }
      ],
      "name": "ownerOf",
      "outputs": [
        {
          "internalType": "address",
          "name": "",
          "type": "address"
        }
      ],
      "stateMutability": "view",
      "type": "function"
    },
    {
      "inputs": [],
      "name": "renounceOwnership",
      "outputs": [],
      "stateMutability": "nonpayable",
      "type": "function"
    },
    {
      "inputs": [
        {
          "internalType": "uint256",
          "name": "",
          "type": "uint256"
        },
        {
          "internalType": "uint256",
          "name": "salePrice",
          "type": "uint256"
        }
      ],
      "name": "royaltyInfo",
      "outputs": [
        {
          "internalType": "address",
          "name": "receiver",
          "type": "address"
        },
        {
          "internalType": "uint256",
          "name": "royaltyAmount",
          "type": "uint256"
        }
      ],
      "stateMutability": "view",
      "type": "function"
    },
    {
      "inputs": [
        {
          "internalType": "address",
          "name": "from",
          "type": "address"
        },
        {
          "internalType": "address",
          "name": "to",
          "type": "address"
        },
        {
          "internalType": "uint256",
          "name": "tokenId",
          "type": "uint256"
        }
      ],
      "name": "safeTransferFrom",
      "outputs": [],
      "stateMutability": "nonpayable",
      "type": "function"
    },
    {
      "inputs": [
        {
          "internalType": "address",
          "name": "from",
          "type": "address"
        },
        {
          "internalType": "address",
          "name": "to",
          "type": "address"
        },
        {
          "internalType": "uint256",
          "name": "tokenId",
          "type": "uint256"
        },
        {
          "internalType": "bytes",
          "name": "_data",
          "type": "bytes"
        }
      ],
      "name": "safeTransferFrom",
      "outputs": [],
      "stateMutability": "nonpayable",
      "type": "function"
    },
    {
      "inputs": [],
      "name": "saleIsActive",
      "outputs": [
        {
          "internalType": "bool",
          "name": "",
          "type": "bool"
        }
      ],
      "stateMutability": "view",
      "type": "function"
    },
    {
      "inputs": [
        {
          "internalType": "address",
          "name": "operator",
          "type": "address"
        },
        {
          "internalType": "bool",
          "name": "approved",
          "type": "bool"
        }
      ],
      "name": "setApprovalForAll",
      "outputs": [],
      "stateMutability": "nonpayable",
      "type": "function"
    },
    {
      "inputs": [
        {
          "internalType": "string",
          "name": "baseTokenURI_",
          "type": "string"
        }
      ],
      "name": "setBaseURI",
      "outputs": [],
      "stateMutability": "nonpayable",
      "type": "function"
    },
    {
      "inputs": [
        {
          "internalType": "bool",
          "name": "saleIsActive_",
          "type": "bool"
        }
      ],
      "name": "setSaleIsActive",
      "outputs": [],
      "stateMutability": "nonpayable",
      "type": "function"
    },
    {
      "inputs": [
        {
          "internalType": "bytes4",
          "name": "interfaceId",
          "type": "bytes4"
        }
      ],
      "name": "supportsInterface",
      "outputs": [
        {
          "internalType": "bool",
          "name": "",
          "type": "bool"
        }
      ],
      "stateMutability": "view",
      "type": "function"
    },
    {
      "inputs": [],
      "name": "symbol",
      "outputs": [
        {
          "internalType": "string",
          "name": "",
          "type": "string"
        }
      ],
      "stateMutability": "view",
      "type": "function"
    },
    {
      "inputs": [
        {
          "internalType": "uint256",
          "name": "tokenId",
          "type": "uint256"
        }
      ],
      "name": "tokenURI",
      "outputs": [
        {
          "internalType": "string",
          "name": "",
          "type": "string"
        }
      ],
      "stateMutability": "view",
      "type": "function"
    },
    {
      "inputs": [],
      "name": "totalSupply",
      "outputs": [
        {
          "internalType": "uint256",
          "name": "",
          "type": "uint256"
        }
      ],
      "stateMutability": "view",
      "type": "function"
    },
    {
      "inputs": [
        {
          "internalType": "address",
          "name": "from",
          "type": "address"
        },
        {
          "internalType": "address",
          "name": "to",
          "type": "address"
        },
        {
          "internalType": "uint256",
          "name": "tokenId",
          "type": "uint256"
        }
      ],
      "name": "transferFrom",
      "outputs": [],
      "stateMutability": "nonpayable",
      "type": "function"
    },
    {
      "inputs": [
        {
          "internalType": "address",
          "name": "newOwner",
          "type": "address"
        }
      ],
      "name": "transferOwnership",
      "outputs": [],
      "stateMutability": "nonpayable",
      "type": "function"
    },
    {
      "inputs": [],
      "name": "withdraw",
      "outputs": [],
      "stateMutability": "nonpayable",
      "type": "function"
    }
  ],
  "bytecode": "0x60806040526001600a60006101000a81548160ff0219169083151502179055503480156200002c57600080fd5b506040518060400160405280600981526020017f4361726c416e64726500000000000000000000000000000000000000000000008152506040518060400160405280600481526020017f44434e54000000000000000000000000000000000000000000000000000000008152508160009080519060200190620000b1929190620001f1565b508060019080519060200190620000ca929190620001f1565b5050506001600681905550620000f5620000e96200012360201b60201c565b6200012b60201b60201c565b60405180602001604052806000815250600890805190602001906200011c929190620001f1565b5062000306565b600033905090565b6000600760009054906101000a900473ffffffffffffffffffffffffffffffffffffffff16905081600760006101000a81548173ffffffffffffffffffffffffffffffffffffffff021916908373ffffffffffffffffffffffffffffffffffffffff1602179055508173ffffffffffffffffffffffffffffffffffffffff168173ffffffffffffffffffffffffffffffffffffffff167f8be0079c531659141344cd1fd0a4f28419497f9722a3daafe3b4186f6b6457e060405160405180910390a35050565b828054620001ff90620002d0565b90600052602060002090601f0160209004810192826200022357600085556200026f565b82601f106200023e57805160ff19168380011785556200026f565b828001600101855582156200026f579182015b828111156200026e57825182559160200191906001019062000251565b5b5090506200027e919062000282565b5090565b5b808211156200029d57600081600090555060010162000283565b5090565b7f4e487b7100000000000000000000000000000000000000000000000000000000600052602260045260246000fd5b60006002820490506001821680620002e957607f821691505b602082108114156200030057620002ff620002a1565b5b50919050565b6139e980620003166000396000f3fe6080604052600436106101815760003560e01c806370a08231116100d1578063a22cb4651161008a578063d547cfb711610064578063d547cfb714610560578063e985e9c51461058b578063eb8d2444146105c8578063f2fde38b146105f357610181565b8063a22cb465146104d1578063b88d4fde146104fa578063c87b56dd1461052357610181565b806370a08231146103e0578063715018a61461041d5780638d859f3e146104345780638da5cb5b1461045f57806395d89b411461048a578063a0712d68146104b557610181565b806323b872dd1161013e5780633ccfd60b116101185780633ccfd60b1461033a57806342842e0e1461035157806355f804b31461037a5780636352211e146103a357610181565b806323b872dd146102a85780632a55205a146102d157806332cb6b0c1461030f57610181565b806301ffc9a71461018657806302c88989146101c357806306fdde03146101ec578063081812fc14610217578063095ea7b31461025457806318160ddd1461027d575b600080fd5b34801561019257600080fd5b506101ad60048036038101906101a8919061237a565b61061c565b6040516101ba91906123c2565b60405180910390f35b3480156101cf57600080fd5b506101ea60048036038101906101e59190612409565b610696565b005b3480156101f857600080fd5b5061020161072f565b60405161020e91906124cf565b60405180910390f35b34801561022357600080fd5b5061023e60048036038101906102399190612527565b6107c1565b60405161024b9190612595565b60405180910390f35b34801561026057600080fd5b5061027b600480360381019061027691906125dc565b610846565b005b34801561028957600080fd5b5061029261095e565b60405161029f919061262b565b60405180910390f35b3480156102b457600080fd5b506102cf60048036038101906102ca9190612646565b61096f565b005b3480156102dd57600080fd5b506102f860048036038101906102f39190612699565b6109cf565b6040516103069291906126d9565b60405180910390f35b34801561031b57600080fd5b506103246109f9565b604051610331919061262b565b60405180910390f35b34801561034657600080fd5b5061034f6109fe565b005b34801561035d57600080fd5b5061037860048036038101906103739190612646565b610af1565b005b34801561038657600080fd5b506103a1600480360381019061039c9190612837565b610b11565b005b3480156103af57600080fd5b506103ca60048036038101906103c59190612527565b610ba7565b6040516103d79190612595565b60405180910390f35b3480156103ec57600080fd5b5061040760048036038101906104029190612880565b610c59565b604051610414919061262b565b60405180910390f35b34801561042957600080fd5b50610432610d11565b005b34801561044057600080fd5b50610449610d99565b604051610456919061262b565b60405180910390f35b34801561046b57600080fd5b50610474610da4565b6040516104819190612595565b60405180910390f35b34801561049657600080fd5b5061049f610dce565b6040516104ac91906124cf565b60405180910390f35b6104cf60048036038101906104ca9190612527565b610e60565b005b3480156104dd57600080fd5b506104f860048036038101906104f391906128ad565b610fb0565b005b34801561050657600080fd5b50610521600480360381019061051c919061298e565b610fc6565b005b34801561052f57600080fd5b5061054a60048036038101906105459190612527565b611028565b60405161055791906124cf565b60405180910390f35b34801561056c57600080fd5b506105756110cf565b60405161058291906124cf565b60405180910390f35b34801561059757600080fd5b506105b260048036038101906105ad9190612a11565b61115d565b6040516105bf91906123c2565b60405180910390f35b3480156105d457600080fd5b506105dd6111f1565b6040516105ea91906123c2565b60405180910390f35b3480156105ff57600080fd5b5061061a60048036038101906106159190612880565b611204565b005b60007f2a55205a000000000000000000000000000000000000000000000000000000007bffffffffffffffffffffffffffffffffffffffffffffffffffffffff1916827bffffffffffffffffffffffffffffffffffffffffffffffffffffffff1916148061068f575061068e826112fc565b5b9050919050565b61069e6113de565b73ffffffffffffffffffffffffffffffffffffffff166106bc610da4565b73ffffffffffffffffffffffffffffffffffffffff1614610712576040517f08c379a000000000000000000000000000000000000000000000000000000000815260040161070990612a9d565b60405180910390fd5b80600a60006101000a81548160ff02191690831515021790555050565b60606000805461073e90612aec565b80601f016020809104026020016040519081016040528092919081815260200182805461076a90612aec565b80156107b75780601f1061078c576101008083540402835291602001916107b7565b820191906000526020600020905b81548152906001019060200180831161079a57829003601f168201915b5050505050905090565b60006107cc826113e6565b61080b576040517f08c379a000000000000000000000000000000000000000000000000000000000815260040161080290612b90565b60405180910390fd5b6004600083815260200190815260200160002060009054906101000a900473ffffffffffffffffffffffffffffffffffffffff169050919050565b600061085182610ba7565b90508073ffffffffffffffffffffffffffffffffffffffff168373ffffffffffffffffffffffffffffffffffffffff1614156108c2576040517f08c379a00000000000000000000000000000000000000000000000000000000081526004016108b990612c22565b60405180910390fd5b8073ffffffffffffffffffffffffffffffffffffffff166108e16113de565b73ffffffffffffffffffffffffffffffffffffffff161480610910575061090f8161090a6113de565b61115d565b5b61094f576040517f08c379a000000000000000000000000000000000000000000000000000000000815260040161094690612cb4565b60405180910390fd5b6109598383611452565b505050565b600061096a600961150b565b905090565b61098061097a6113de565b82611519565b6109bf576040517f08c379a00000000000000000000000000000000000000000000000000000000081526004016109b690612d46565b60405180910390fd5b6109ca8383836115f7565b505050565b600080306127106103e8856109e49190612d95565b6109ee9190612e1e565b915091509250929050565b601e81565b60026006541415610a44576040517f08c379a0000000000000000000000000000000000000000000000000000000008152600401610a3b90612e9b565b60405180910390fd5b60026006819055506000479050610a7a610a5c610da4565b6064602884610a6b9190612d95565b610a759190612e1e565b61185e565b610ab073d7e8d1a3534cda62c6574309d8100c1c7b52241c6064601e84610aa19190612d95565b610aab9190612e1e565b61185e565b610ae67351893553130b4468c22694fa7434cf05b03cce416064601e84610ad79190612d95565b610ae19190612e1e565b61185e565b506001600681905550565b610b0c83838360405180602001604052806000815250610fc6565b505050565b610b196113de565b73ffffffffffffffffffffffffffffffffffffffff16610b37610da4565b73ffffffffffffffffffffffffffffffffffffffff1614610b8d576040517f08c379a0000000000000000000000000000000000000000000000000000000008152600401610b8490612a9d565b60405180910390fd5b8060089080519060200190610ba392919061226b565b5050565b6000806002600084815260200190815260200160002060009054906101000a900473ffffffffffffffffffffffffffffffffffffffff169050600073ffffffffffffffffffffffffffffffffffffffff168173ffffffffffffffffffffffffffffffffffffffff161415610c50576040517f08c379a0000000000000000000000000000000000000000000000000000000008152600401610c4790612f2d565b60405180910390fd5b80915050919050565b60008073ffffffffffffffffffffffffffffffffffffffff168273ffffffffffffffffffffffffffffffffffffffff161415610cca576040517f08c379a0000000000000000000000000000000000000000000000000000000008152600401610cc190612fbf565b60405180910390fd5b600360008373ffffffffffffffffffffffffffffffffffffffff1673ffffffffffffffffffffffffffffffffffffffff168152602001908152602001600020549050919050565b610d196113de565b73ffffffffffffffffffffffffffffffffffffffff16610d37610da4565b73ffffffffffffffffffffffffffffffffffffffff1614610d8d576040517f08c379a0000000000000000000000000000000000000000000000000000000008152600401610d8490612a9d565b60405180910390fd5b610d976000611952565b565b66470de4df82000081565b6000600760009054906101000a900473ffffffffffffffffffffffffffffffffffffffff16905090565b606060018054610ddd90612aec565b80601f0160208091040260200160405190810160405280929190818152602001828054610e0990612aec565b8015610e565780601f10610e2b57610100808354040283529160200191610e56565b820191906000526020600020905b815481529060010190602001808311610e3957829003601f168201915b5050505050905090565b60026006541415610ea6576040517f08c379a0000000000000000000000000000000000000000000000000000000008152600401610e9d90612e9b565b60405180910390fd5b6002600681905550600a60009054906101000a900460ff16610efd576040517f08c379a0000000000000000000000000000000000000000000000000000000008152600401610ef49061302b565b60405180910390fd5b601e610f0761095e565b10610f47576040517f08c379a0000000000000000000000000000000000000000000000000000000008152600401610f3e90613097565b60405180910390fd5b66470de4df820000341015610f91576040517f08c379a0000000000000000000000000000000000000000000000000000000008152600401610f8890613129565b60405180910390fd5b610f9b3382611a18565b610fa56009611a36565b600160068190555050565b610fc2610fbb6113de565b8383611a4c565b5050565b610fd7610fd16113de565b83611519565b611016576040517f08c379a000000000000000000000000000000000000000000000000000000000815260040161100d90612d46565b60405180910390fd5b61102284848484611bb9565b50505050565b6060611033826113e6565b611072576040517f08c379a0000000000000000000000000000000000000000000000000000000008152600401611069906131bb565b60405180910390fd5b600061107c611c15565b9050600081511161109c57604051806020016040528060008152506110c7565b806110a684611ca7565b6040516020016110b7929190613217565b6040516020818303038152906040525b915050919050565b600880546110dc90612aec565b80601f016020809104026020016040519081016040528092919081815260200182805461110890612aec565b80156111555780601f1061112a57610100808354040283529160200191611155565b820191906000526020600020905b81548152906001019060200180831161113857829003601f168201915b505050505081565b6000600560008473ffffffffffffffffffffffffffffffffffffffff1673ffffffffffffffffffffffffffffffffffffffff16815260200190815260200160002060008373ffffffffffffffffffffffffffffffffffffffff1673ffffffffffffffffffffffffffffffffffffffff16815260200190815260200160002060009054906101000a900460ff16905092915050565b600a60009054906101000a900460ff1681565b61120c6113de565b73ffffffffffffffffffffffffffffffffffffffff1661122a610da4565b73ffffffffffffffffffffffffffffffffffffffff1614611280576040517f08c379a000000000000000000000000000000000000000000000000000000000815260040161127790612a9d565b60405180910390fd5b600073ffffffffffffffffffffffffffffffffffffffff168173ffffffffffffffffffffffffffffffffffffffff1614156112f0576040517f08c379a00000000000000000000000000000000000000000000000000000000081526004016112e7906132ad565b60405180910390fd5b6112f981611952565b50565b60007f80ac58cd000000000000000000000000000000000000000000000000000000007bffffffffffffffffffffffffffffffffffffffffffffffffffffffff1916827bffffffffffffffffffffffffffffffffffffffffffffffffffffffff191614806113c757507f5b5e139f000000000000000000000000000000000000000000000000000000007bffffffffffffffffffffffffffffffffffffffffffffffffffffffff1916827bffffffffffffffffffffffffffffffffffffffffffffffffffffffff1916145b806113d757506113d682611e08565b5b9050919050565b600033905090565b60008073ffffffffffffffffffffffffffffffffffffffff166002600084815260200190815260200160002060009054906101000a900473ffffffffffffffffffffffffffffffffffffffff1673ffffffffffffffffffffffffffffffffffffffff1614159050919050565b816004600083815260200190815260200160002060006101000a81548173ffffffffffffffffffffffffffffffffffffffff021916908373ffffffffffffffffffffffffffffffffffffffff160217905550808273ffffffffffffffffffffffffffffffffffffffff166114c583610ba7565b73ffffffffffffffffffffffffffffffffffffffff167f8c5be1e5ebec7d5bd14f71427d1e84f3dd0314c0f7b2291e5b200ac8c7c3b92560405160405180910390a45050565b600081600001549050919050565b6000611524826113e6565b611563576040517f08c379a000000000000000000000000000000000000000000000000000000000815260040161155a9061333f565b60405180910390fd5b600061156e83610ba7565b90508073ffffffffffffffffffffffffffffffffffffffff168473ffffffffffffffffffffffffffffffffffffffff1614806115b057506115af818561115d565b5b806115ee57508373ffffffffffffffffffffffffffffffffffffffff166115d6846107c1565b73ffffffffffffffffffffffffffffffffffffffff16145b91505092915050565b8273ffffffffffffffffffffffffffffffffffffffff1661161782610ba7565b73ffffffffffffffffffffffffffffffffffffffff161461166d576040517f08c379a0000000000000000000000000000000000000000000000000000000008152600401611664906133d1565b60405180910390fd5b600073ffffffffffffffffffffffffffffffffffffffff168273ffffffffffffffffffffffffffffffffffffffff1614156116dd576040517f08c379a00000000000000000000000000000000000000000000000000000000081526004016116d490613463565b60405180910390fd5b6116e8838383611e72565b6116f3600082611452565b6001600360008573ffffffffffffffffffffffffffffffffffffffff1673ffffffffffffffffffffffffffffffffffffffff16815260200190815260200160002060008282546117439190613483565b925050819055506001600360008473ffffffffffffffffffffffffffffffffffffffff1673ffffffffffffffffffffffffffffffffffffffff168152602001908152602001600020600082825461179a91906134b7565b92505081905550816002600083815260200190815260200160002060006101000a81548173ffffffffffffffffffffffffffffffffffffffff021916908373ffffffffffffffffffffffffffffffffffffffff160217905550808273ffffffffffffffffffffffffffffffffffffffff168473ffffffffffffffffffffffffffffffffffffffff167fddf252ad1be2c89b69c2b068fc378daa952ba7f163c4a11628f55a4df523b3ef60405160405180910390a4611859838383611e77565b505050565b804710156118a1576040517f08c379a000000000000000000000000000000000000000000000000000000000815260040161189890613559565b60405180910390fd5b60008273ffffffffffffffffffffffffffffffffffffffff16826040516118c7906135aa565b60006040518083038185875af1925050503d8060008114611904576040519150601f19603f3d011682016040523d82523d6000602084013e611909565b606091505b505090508061194d576040517f08c379a000000000000000000000000000000000000000000000000000000000815260040161194490613631565b60405180910390fd5b505050565b6000600760009054906101000a900473ffffffffffffffffffffffffffffffffffffffff16905081600760006101000a81548173ffffffffffffffffffffffffffffffffffffffff021916908373ffffffffffffffffffffffffffffffffffffffff1602179055508173ffffffffffffffffffffffffffffffffffffffff168173ffffffffffffffffffffffffffffffffffffffff167f8be0079c531659141344cd1fd0a4f28419497f9722a3daafe3b4186f6b6457e060405160405180910390a35050565b611a32828260405180602001604052806000815250611e7c565b5050565b6001816000016000828254019250508190555050565b8173ffffffffffffffffffffffffffffffffffffffff168373ffffffffffffffffffffffffffffffffffffffff161415611abb576040517f08c379a0000000000000000000000000000000000000000000000000000000008152600401611ab29061369d565b60405180910390fd5b80600560008573ffffffffffffffffffffffffffffffffffffffff1673ffffffffffffffffffffffffffffffffffffffff16815260200190815260200160002060008473ffffffffffffffffffffffffffffffffffffffff1673ffffffffffffffffffffffffffffffffffffffff16815260200190815260200160002060006101000a81548160ff0219169083151502179055508173ffffffffffffffffffffffffffffffffffffffff168373ffffffffffffffffffffffffffffffffffffffff167f17307eab39ab6107e8899845ad3d59bd9653f200f220920489ca2b5937696c3183604051611bac91906123c2565b60405180910390a3505050565b611bc48484846115f7565b611bd084848484611ed7565b611c0f576040517f08c379a0000000000000000000000000000000000000000000000000000000008152600401611c069061372f565b60405180910390fd5b50505050565b606060088054611c2490612aec565b80601f0160208091040260200160405190810160405280929190818152602001828054611c5090612aec565b8015611c9d5780601f10611c7257610100808354040283529160200191611c9d565b820191906000526020600020905b815481529060010190602001808311611c8057829003601f168201915b5050505050905090565b60606000821415611cef576040518060400160405280600181526020017f30000000000000000000000000000000000000000000000000000000000000008152509050611e03565b600082905060005b60008214611d21578080611d0a9061374f565b915050600a82611d1a9190612e1e565b9150611cf7565b60008167ffffffffffffffff811115611d3d57611d3c61270c565b5b6040519080825280601f01601f191660200182016040528015611d6f5781602001600182028036833780820191505090505b5090505b60008514611dfc57600182611d889190613483565b9150600a85611d979190613798565b6030611da391906134b7565b60f81b818381518110611db957611db86137c9565b5b60200101907effffffffffffffffffffffffffffffffffffffffffffffffffffffffffffff1916908160001a905350600a85611df59190612e1e565b9450611d73565b8093505050505b919050565b60007f01ffc9a7000000000000000000000000000000000000000000000000000000007bffffffffffffffffffffffffffffffffffffffffffffffffffffffff1916827bffffffffffffffffffffffffffffffffffffffffffffffffffffffff1916149050919050565b505050565b505050565b611e86838361206e565b611e936000848484611ed7565b611ed2576040517f08c379a0000000000000000000000000000000000000000000000000000000008152600401611ec99061372f565b60405180910390fd5b505050565b6000611ef88473ffffffffffffffffffffffffffffffffffffffff16612248565b15612061578373ffffffffffffffffffffffffffffffffffffffff1663150b7a02611f216113de565b8786866040518563ffffffff1660e01b8152600401611f43949392919061384d565b602060405180830381600087803b158015611f5d57600080fd5b505af1925050508015611f8e57506040513d601f19601f82011682018060405250810190611f8b91906138ae565b60015b612011573d8060008114611fbe576040519150601f19603f3d011682016040523d82523d6000602084013e611fc3565b606091505b50600081511415612009576040517f08c379a00000000000000000000000000000000000000000000000000000000081526004016120009061372f565b60405180910390fd5b805181602001fd5b63150b7a0260e01b7bffffffffffffffffffffffffffffffffffffffffffffffffffffffff1916817bffffffffffffffffffffffffffffffffffffffffffffffffffffffff191614915050612066565b600190505b949350505050565b600073ffffffffffffffffffffffffffffffffffffffff168273ffffffffffffffffffffffffffffffffffffffff1614156120de576040517f08c379a00000000000000000000000000000000000000000000000000000000081526004016120d590613927565b60405180910390fd5b6120e7816113e6565b15612127576040517f08c379a000000000000000000000000000000000000000000000000000000000815260040161211e90613993565b60405180910390fd5b61213360008383611e72565b6001600360008473ffffffffffffffffffffffffffffffffffffffff1673ffffffffffffffffffffffffffffffffffffffff168152602001908152602001600020600082825461218391906134b7565b92505081905550816002600083815260200190815260200160002060006101000a81548173ffffffffffffffffffffffffffffffffffffffff021916908373ffffffffffffffffffffffffffffffffffffffff160217905550808273ffffffffffffffffffffffffffffffffffffffff16600073ffffffffffffffffffffffffffffffffffffffff167fddf252ad1be2c89b69c2b068fc378daa952ba7f163c4a11628f55a4df523b3ef60405160405180910390a461224460008383611e77565b5050565b6000808273ffffffffffffffffffffffffffffffffffffffff163b119050919050565b82805461227790612aec565b90600052602060002090601f01602090048101928261229957600085556122e0565b82601f106122b257805160ff19168380011785556122e0565b828001600101855582156122e0579182015b828111156122df5782518255916020019190600101906122c4565b5b5090506122ed91906122f1565b5090565b5b8082111561230a5760008160009055506001016122f2565b5090565b6000604051905090565b600080fd5b600080fd5b60007fffffffff0000000000000000000000000000000000000000000000000000000082169050919050565b61235781612322565b811461236257600080fd5b50565b6000813590506123748161234e565b92915050565b6000602082840312156123905761238f612318565b5b600061239e84828501612365565b91505092915050565b60008115159050919050565b6123bc816123a7565b82525050565b60006020820190506123d760008301846123b3565b92915050565b6123e6816123a7565b81146123f157600080fd5b50565b600081359050612403816123dd565b92915050565b60006020828403121561241f5761241e612318565b5b600061242d848285016123f4565b91505092915050565b600081519050919050565b600082825260208201905092915050565b60005b83811015612470578082015181840152602081019050612455565b8381111561247f576000848401525b50505050565b6000601f19601f8301169050919050565b60006124a182612436565b6124ab8185612441565b93506124bb818560208601612452565b6124c481612485565b840191505092915050565b600060208201905081810360008301526124e98184612496565b905092915050565b6000819050919050565b612504816124f1565b811461250f57600080fd5b50565b600081359050612521816124fb565b92915050565b60006020828403121561253d5761253c612318565b5b600061254b84828501612512565b91505092915050565b600073ffffffffffffffffffffffffffffffffffffffff82169050919050565b600061257f82612554565b9050919050565b61258f81612574565b82525050565b60006020820190506125aa6000830184612586565b92915050565b6125b981612574565b81146125c457600080fd5b50565b6000813590506125d6816125b0565b92915050565b600080604083850312156125f3576125f2612318565b5b6000612601858286016125c7565b925050602061261285828601612512565b9150509250929050565b612625816124f1565b82525050565b6000602082019050612640600083018461261c565b92915050565b60008060006060848603121561265f5761265e612318565b5b600061266d868287016125c7565b935050602061267e868287016125c7565b925050604061268f86828701612512565b9150509250925092565b600080604083850312156126b0576126af612318565b5b60006126be85828601612512565b92505060206126cf85828601612512565b9150509250929050565b60006040820190506126ee6000830185612586565b6126fb602083018461261c565b9392505050565b600080fd5b600080fd5b7f4e487b7100000000000000000000000000000000000000000000000000000000600052604160045260246000fd5b61274482612485565b810181811067ffffffffffffffff821117156127635761276261270c565b5b80604052505050565b600061277661230e565b9050612782828261273b565b919050565b600067ffffffffffffffff8211156127a2576127a161270c565b5b6127ab82612485565b9050602081019050919050565b82818337600083830152505050565b60006127da6127d584612787565b61276c565b9050828152602081018484840111156127f6576127f5612707565b5b6128018482856127b8565b509392505050565b600082601f83011261281e5761281d612702565b5b813561282e8482602086016127c7565b91505092915050565b60006020828403121561284d5761284c612318565b5b600082013567ffffffffffffffff81111561286b5761286a61231d565b5b61287784828501612809565b91505092915050565b60006020828403121561289657612895612318565b5b60006128a4848285016125c7565b91505092915050565b600080604083850312156128c4576128c3612318565b5b60006128d2858286016125c7565b92505060206128e3858286016123f4565b9150509250929050565b600067ffffffffffffffff8211156129085761290761270c565b5b61291182612485565b9050602081019050919050565b600061293161292c846128ed565b61276c565b90508281526020810184848401111561294d5761294c612707565b5b6129588482856127b8565b509392505050565b600082601f83011261297557612974612702565b5b813561298584826020860161291e565b91505092915050565b600080600080608085870312156129a8576129a7612318565b5b60006129b6878288016125c7565b94505060206129c7878288016125c7565b93505060406129d887828801612512565b925050606085013567ffffffffffffffff8111156129f9576129f861231d565b5b612a0587828801612960565b91505092959194509250565b60008060408385031215612a2857612a27612318565b5b6000612a36858286016125c7565b9250506020612a47858286016125c7565b9150509250929050565b7f4f776e61626c653a2063616c6c6572206973206e6f7420746865206f776e6572600082015250565b6000612a87602083612441565b9150612a9282612a51565b602082019050919050565b60006020820190508181036000830152612ab681612a7a565b9050919050565b7f4e487b7100000000000000000000000000000000000000000000000000000000600052602260045260246000fd5b60006002820490506001821680612b0457607f821691505b60208210811415612b1857612b17612abd565b5b50919050565b7f4552433732313a20617070726f76656420717565727920666f72206e6f6e657860008201527f697374656e7420746f6b656e0000000000000000000000000000000000000000602082015250565b6000612b7a602c83612441565b9150612b8582612b1e565b604082019050919050565b60006020820190508181036000830152612ba981612b6d565b9050919050565b7f4552433732313a20617070726f76616c20746f2063757272656e74206f776e6560008201527f7200000000000000000000000000000000000000000000000000000000000000602082015250565b6000612c0c602183612441565b9150612c1782612bb0565b604082019050919050565b60006020820190508181036000830152612c3b81612bff565b9050919050565b7f4552433732313a20617070726f76652063616c6c6572206973206e6f74206f7760008201527f6e6572206e6f7220617070726f76656420666f7220616c6c0000000000000000602082015250565b6000612c9e603883612441565b9150612ca982612c42565b604082019050919050565b60006020820190508181036000830152612ccd81612c91565b9050919050565b7f4552433732313a207472616e736665722063616c6c6572206973206e6f74206f60008201527f776e6572206e6f7220617070726f766564000000000000000000000000000000602082015250565b6000612d30603183612441565b9150612d3b82612cd4565b604082019050919050565b60006020820190508181036000830152612d5f81612d23565b9050919050565b7f4e487b7100000000000000000000000000000000000000000000000000000000600052601160045260246000fd5b6000612da0826124f1565b9150612dab836124f1565b9250817fffffffffffffffffffffffffffffffffffffffffffffffffffffffffffffffff0483118215151615612de457612de3612d66565b5b828202905092915050565b7f4e487b7100000000000000000000000000000000000000000000000000000000600052601260045260246000fd5b6000612e29826124f1565b9150612e34836124f1565b925082612e4457612e43612def565b5b828204905092915050565b7f5265656e7472616e637947756172643a207265656e7472616e742063616c6c00600082015250565b6000612e85601f83612441565b9150612e9082612e4f565b602082019050919050565b60006020820190508181036000830152612eb481612e78565b9050919050565b7f4552433732313a206f776e657220717565727920666f72206e6f6e657869737460008201527f656e7420746f6b656e0000000000000000000000000000000000000000000000602082015250565b6000612f17602983612441565b9150612f2282612ebb565b604082019050919050565b60006020820190508181036000830152612f4681612f0a565b9050919050565b7f4552433732313a2062616c616e636520717565727920666f7220746865207a6560008201527f726f206164647265737300000000000000000000000000000000000000000000602082015250565b6000612fa9602a83612441565b9150612fb482612f4d565b604082019050919050565b60006020820190508181036000830152612fd881612f9c565b9050919050565b7f53616c65206e6f74206163746976650000000000000000000000000000000000600082015250565b6000613015600f83612441565b915061302082612fdf565b602082019050919050565b6000602082019050818103600083015261304481613008565b9050919050565b7f45786365656473206d617820737570706c790000000000000000000000000000600082015250565b6000613081601283612441565b915061308c8261304b565b602082019050919050565b600060208201905081810360008301526130b081613074565b9050919050565b7f496e73756666696369656e74207061796d656e742c20302e303220455448207060008201527f657220617274776f726b00000000000000000000000000000000000000000000602082015250565b6000613113602a83612441565b915061311e826130b7565b604082019050919050565b6000602082019050818103600083015261314281613106565b9050919050565b7f4552433732314d657461646174613a2055524920717565727920666f72206e6f60008201527f6e6578697374656e7420746f6b656e0000000000000000000000000000000000602082015250565b60006131a5602f83612441565b91506131b082613149565b604082019050919050565b600060208201905081810360008301526131d481613198565b9050919050565b600081905092915050565b60006131f182612436565b6131fb81856131db565b935061320b818560208601612452565b80840191505092915050565b600061322382856131e6565b915061322f82846131e6565b91508190509392505050565b7f4f776e61626c653a206e6577206f776e657220697320746865207a65726f206160008201527f6464726573730000000000000000000000000000000000000000000000000000602082015250565b6000613297602683612441565b91506132a28261323b565b604082019050919050565b600060208201905081810360008301526132c68161328a565b9050919050565b7f4552433732313a206f70657261746f7220717565727920666f72206e6f6e657860008201527f697374656e7420746f6b656e0000000000000000000000000000000000000000602082015250565b6000613329602c83612441565b9150613334826132cd565b604082019050919050565b600060208201905081810360008301526133588161331c565b9050919050565b7f4552433732313a207472616e736665722066726f6d20696e636f72726563742060008201527f6f776e6572000000000000000000000000000000000000000000000000000000602082015250565b60006133bb602583612441565b91506133c68261335f565b604082019050919050565b600060208201905081810360008301526133ea816133ae565b9050919050565b7f4552433732313a207472616e7366657220746f20746865207a65726f2061646460008201527f7265737300000000000000000000000000000000000000000000000000000000602082015250565b600061344d602483612441565b9150613458826133f1565b604082019050919050565b6000602082019050818103600083015261347c81613440565b9050919050565b600061348e826124f1565b9150613499836124f1565b9250828210156134ac576134ab612d66565b5b828203905092915050565b60006134c2826124f1565b91506134cd836124f1565b9250827fffffffffffffffffffffffffffffffffffffffffffffffffffffffffffffffff0382111561350257613501612d66565b5b828201905092915050565b7f416464726573733a20696e73756666696369656e742062616c616e6365000000600082015250565b6000613543601d83612441565b915061354e8261350d565b602082019050919050565b6000602082019050818103600083015261357281613536565b9050919050565b600081905092915050565b50565b6000613594600083613579565b915061359f82613584565b600082019050919050565b60006135b582613587565b9150819050919050565b7f416464726573733a20756e61626c6520746f2073656e642076616c75652c207260008201527f6563697069656e74206d61792068617665207265766572746564000000000000602082015250565b600061361b603a83612441565b9150613626826135bf565b604082019050919050565b6000602082019050818103600083015261364a8161360e565b9050919050565b7f4552433732313a20617070726f766520746f2063616c6c657200000000000000600082015250565b6000613687601983612441565b915061369282613651565b602082019050919050565b600060208201905081810360008301526136b68161367a565b9050919050565b7f4552433732313a207472616e7366657220746f206e6f6e20455243373231526560008201527f63656976657220696d706c656d656e7465720000000000000000000000000000602082015250565b6000613719603283612441565b9150613724826136bd565b604082019050919050565b600060208201905081810360008301526137488161370c565b9050919050565b600061375a826124f1565b91507fffffffffffffffffffffffffffffffffffffffffffffffffffffffffffffffff82141561378d5761378c612d66565b5b600182019050919050565b60006137a3826124f1565b91506137ae836124f1565b9250826137be576137bd612def565b5b828206905092915050565b7f4e487b7100000000000000000000000000000000000000000000000000000000600052603260045260246000fd5b600081519050919050565b600082825260208201905092915050565b600061381f826137f8565b6138298185613803565b9350613839818560208601612452565b61384281612485565b840191505092915050565b60006080820190506138626000830187612586565b61386f6020830186612586565b61387c604083018561261c565b818103606083015261388e8184613814565b905095945050505050565b6000815190506138a88161234e565b92915050565b6000602082840312156138c4576138c3612318565b5b60006138d284828501613899565b91505092915050565b7f4552433732313a206d696e7420746f20746865207a65726f2061646472657373600082015250565b6000613911602083612441565b915061391c826138db565b602082019050919050565b6000602082019050818103600083015261394081613904565b9050919050565b7f4552433732313a20746f6b656e20616c7265616479206d696e74656400000000600082015250565b600061397d601c83612441565b915061398882613947565b602082019050919050565b600060208201905081810360008301526139ac81613970565b905091905056fea26469706673582212209c0e6db08760ed3b161f06d231e457057d4272a5d247506dca244752a925637264736f6c63430008090033",
  "linkReferences": {},
  "deployedLinkReferences": {}
}